:100000000C94BE020C9424130C9405030C94050369
:100010000C9405030C9405030C9405030C94050340
:100020000C9405030C9405030C9480260C94522721
:100030000C946D210C9405030C9405030C9405039A
:100040000C9405030C9405030C9405030C94050310
:100050000C9405030C94C6210C9405030C94050321
:100060000C9405030C9405030C9405030C940503F0
:100070000C9405030C9405030C9405030C940503E0
:100080000C9405030C9405030C9405030C940503D0
:100090000C9405030C9405030C9405030C940503C0
:1000A0000C9405030C9405030C940503A516A516E2
:1000B000D716D71624175818581858184217D71794
:1000C000E817E8174818581858185118F418F41871
:1000D00006190619FD18061906190619F418F41858
:1000E0000219061906190219BF27E627DE28E62796
:1000F000DE2832285528DE28AC28BB2818010E013E
:1001000004010000000CAAFFFFFF00000000000C2B
:1001100080FF80FF00000000000C8466FFFF0000ED
:10012000000003531E001F002000210022002B00AE
:1001300014001A00080015001700E0000400160063
:10014000070009000A00E1001D001B00060019005D
:1001500005002900E300E200350001512C002300D6
:1001600024002500260027004C001C0018000C006D
:10017000120013002A000B000D000E000F003300C8
:10018000280011001000360037005200E500E100A1
:1001900002512D00500051004F0001001E001F00B1
:1001A00020002100220001001E001F00200021006D
:1001B0002200010023002400250026002700010062
:1001C0002D00380025022E022E0001000100010042
:1001D0000100010001002300240025002600270063
:1001E000010031002F0230022302220201003402FA
:1001F000260227021E023802010034002F003000C0
:100200001F020100010001000100010001000100C6
:1002100001000100010001000100010001000100D6
:100220003A003B003C003D003E0001003F00400022
:10023000410042004300010044004500010001006C
:1002400001000100010001000100010001000100A6
:10025000010001000100010001002002240231021E
:100260002102350201005000510052004F000100F0
:1002700001005F5D605D615D625D01000100010084
:100280000100010001000100010001000000000068
:10029000540055002A00010000002400250026001B
:1002A0005600010000005C005D005E005700010088
:1002B000000059005A005B005800010001002700AF
:1002C00063000100010000000000000000000000C9
:1002D000010000000000000000000000010000001C
:1002E000000000000000000001000000000000000D
:1002F00000000000010001000100010001000100F8
:100300000100643214FFAA7F554000010203040576
:10031000393837363534432A2B2C2D2E24232221ED
:10032000204241161718191A100F0E0D0C4006071F
:1003300008090A0B3A3B3C3D3E3F47333231302FF0
:10034000252627282946451F1E1D1C1B1112131484
:100350001544000101010101010101010202020233
:10036000020202020203030303030303030404045F
:100370000404040405050505050606060606070728
:1003800007070708080808090909090A0A0A0B0BE0
:100390000B0C0C0C0D0D0D0E0E0E0F0F0F1010117F
:1003A0001111121213131414151516161717181805
:1003B00019191A1A1B1B1C1D1D1E1E1F202021226D
:1003C00022232424252626272829292A2B2C2D2DB3
:1003D0002E2F30313232333435363738393A3B3CD0
:1003E0003D3E3F404142434445464748494A4C4DC3
:1003F0004E4F50515354555658595A5B5D5E5F618C
:100400006264656668696B6C6D6F7072737577781E
:100410007A7B7D7E8082838587888A8C8E8F91937C
:100420009596989A9C9EA0A2A3A5A7A9ABADAFB1A3
:10043000B3B5B7BABCBEC0C2C4C6C9CBCDCFD1D488
:10044000D6D8DBDDDFE2E4E7E9EBEEF0F3F5F8FA2E
:10045000FDFF1003480079007000720065006F0016
:100460006E000000180348006100720072007900FD
:10047000530069007A0075006B00750000000403EA
:10048000090409023B00020100A0FA09040000016E
:10049000030101000921110100012240000705812B
:1004A0000308000A090401000103000000092111EA
:1004B000010001226D000705820320000A120110CD
:1004C0000100000008F62003000100010200010500
:1004D000010980A101850319012AB700150126B77A
:1004E00000950175108100C0050C0901A10185046A
:1004F00019012AA002150126A0029501751081009C
:10050000C005010906A1018505050719E029E715C0
:100510000025019508750181020507190029EF15CD
:1005200000250195F075018102050819012905953D
:100530000575019102950175039101C00501090638
:10054000A101050719E029E71500250195087501A6
:1005500081029501750881010507190029FF150021
:1005600026FF0095067508810005081901290595E3
:100570000575019102950175039101C011241FBEFB
:10058000CFEFDAE0DEBFCDBF04B603FE27C0809117
:10059000E0039091E103A091E203B091E30387307F
:1005A000904BA740B04BD1F41092E0031092E103BE
:1005B0001092E2031092E30314BE84B7877F84BFD6
:1005C0000FB6F894A89580916000886180936000D0
:1005D000109260000FBEE0E0F8E3099511E0A0E0A2
:1005E000B1E0E4E6F3E502C005900D92AA3CB10744
:1005F000D9F723E0AAECB1E001C01D92A03EB207FA
:10060000E1F70E94BA230C94B0290C940000CF9318
:10061000FB0180362DE5920731F120F48F359D45A1
:1006200049F04FC081362DE5920721F182369D4574
:1006300031F147C0C281CC2309F444C0C09100010C
:10064000CC2341F040E060E080E00E94C50B1092B6
:1006500000010EC00E94A90C88E00E94A60C81E057
:10066000809300012FC0C281CC2361F10E94300D24
:10067000C0E028C0C281CC2329F186E01FC0C2811E
:10068000CC2301F10E94B109883098F00E94B10991
:10069000823178F48091CC019091CD0101966AE08D
:1006A00070E00E9438298093CC019093CD01885F3F
:1006B00005C01092CD011092CC0188E00E94A60CDA
:1006C000D7CFC1E08C2FCF910895811107C0662349
:1006D00011F089EA01C08AEA0E945B1681E0089560
:1006E00008958CEF90E09093D7018093D6010C94FD
:1006F000190DCF92DF92EF92FF926B017C0140E0E7
:100700000E94231D682F80E00E94D30C41E0C701A6
:10071000B6010E94231D682F81E00E94D30C42E0A5
:10072000C701B6010E94231D682F82E00E94D30CEE
:10073000C701B601FF90EF90DF90CF90089581E060
:1007400008950C94070308950C94A3031F93CF936B
:10075000DF9300D000D01F92CDB7DEB749835A8314
:100760006B833091240289819A81311114C06623F0
:1007700059F0222349F00E94441E182F682F8981C6
:100780009A810E94EB1D03C00E94171E182F6981D9
:100790007A81812F04C00E94441E69817A810F9062
:1007A0000F900F900F900F90DF91CF911F910C94AD
:1007B0006F04FC01262F4081518162817381848105
:1007C0000C94A603CF93DF93EC0160E00E94D90361
:1007D000BE01DF91CF910C94A4030E9474060C9487
:1007E000AE060C94AA0608950E94E2180E94F30334
:1007F0002FEF84E39CE0215080409040E1F700C05F
:1008000000000C9436220F931F93CF93DF938C013B
:1008100061E00E94D903EC01B8010E94A103882382
:1008200009F444C0B801CE010E9448108823F1F1B8
:10083000B801CE010E949A108823C1F1B801CE01FF
:100840000E94C511882391F1B801CE010E944F0E7C
:10085000882361F1F8018281882309F1CB358DE588
:10086000D807C1F050F4C115FCE5DF0781F0CF3D9A
:10087000DC45A9F40E944F2019C0CC35EDE5DE0718
:1008800061F0CD35DD4559F40E94D71E08C00E94A5
:10089000F4030CC00E94E01E02C00E94E31EC801C7
:1008A000DF91CF911F910F910C949F0380E0DF9116
:1008B000CF911F910F9108950C94700381E00895DA
:1008C0000C945E04CF93C82F0E945C048C2F0E946E
:1008D0006004CF91089580E090E0089508952CE39E
:1008E000829FC0011124FC0126E0729FE00DF11DE2
:1008F0001124E60FF11DEE0FFF1FEE5DFE4F8591F7
:1009000094910895880F991FFC01EE5FFC4F85912B
:1009100094910895CF93DF930E946F040E949C05E9
:10092000EC018115904508F043C0C11580E4D8075B
:1009300008F0CBC0C03ED10528F5C03CD10508F079
:10094000B3C0C83AD10578F4C53AD10508F0A4C0BF
:10095000C130D10509F4ECC008F4E8C0C430D105B9
:1009600008F0E6C0E3C0CF3BD10508F0DFC0C85AAD
:10097000D0E0CC0FDD1FCB5BDE4F0990D881C02DBE
:10098000D464D6C0C11590E2D90750F4C11521E056
:10099000D20708F0CDC0C83ED10508F4C9C0C6C012
:1009A000C11580E3D80708F086C0CE019F707FC0D4
:1009B000C11595E5D90708F043C0C11524E5D20754
:1009C00008F09AC0C11582E5D80708F5C11591E570
:1009D000D90708F07DC0CE0174E0969587957A9589
:1009E000E1F783709C2F937021E030E002C0220F6A
:1009F000331F9A95E2F73C68382BCF70C695C695A1
:100A000080E2C89FE0011124C22BD32B91C09E012C
:100A1000237033278C2F86958695C115D34508F012
:100A20005CC0C1E0D0E002C0CC0FDD1F2A95E2F728
:100A300020E2829FC0011124C82BD92BDC6878C02A
:100A4000C11529E5D207A0F4C11588E5D80708F03B
:100A500058C0C11596E5D90708F068C08C2F0E94D0
:100A600030068F71C82FD0E0DC2FCC27D06260C059
:100A7000C1152AE5D20708F449C0CE019056811568
:100A8000904208F053C08D2F8F710E943006DD27F1
:100A9000D0628F71D82B4CC0C55AD0E0CD58DE4FF4
:100AA000C881D0E0D06444C0CE01805C91090E942E
:100AB0008204EC013DC0CE019927D3FF03C0EC01B5
:100AC000D86C36C0EC01D06C33C0DF70D06A30C057
:100AD000DC2FCC27C16FD06A2BC0C1E0D0E002C0B0
:100AE000CC0FDD1F2A95E2F720E2829FC00111247E
:100AF000C82BD92BDA681CC0DC2FCC27C46FD06A76
:100B000017C0DC2FCC27C06FD06A12C08C2F8F701B
:100B10000E94300694E0D695C7959A95E1F7CF707C
:100B2000D0E0DC2FCC27D069C82B02C0C0E0D0E0D9
:100B3000CE01DF91CF9108958238910569F1B0F42B
:100B40008133910509F46DC048F48932910509F4A7
:100B500063C08A32910509F469C00895853391050F
:100B600009F455C089339105B9F00895833E910584
:100B700069F138F4803E9105B1F0823E910509F1AA
:100B80000895863E9105A9F1873E9105B9F1843E0D
:100B9000910509F064C023C02091D60220FD4FC00A
:100BA00021FD4DC008958091D60280FD44C0809102
:100BB000D70280FF44C08091D60284FD42C083EEFC
:100BC0004DC08091D60282FF38C0F5CF8091D60209
:100BD00082FD33C08091D70280FD31C0ECCF80917F
:100BE000D70281FF32C08091D60284FD2AC087EEF1
:100BF00035C08091D60283FF26C0F5CF8091D60202
:100C000083FD21C08091D70281FD1FC0ECCF809170
:100C1000D60285FD1CC01DC08091D60285FD19C07D
:100C200016C08091D60286FD16C017C08091D602EC
:100C300086FD13C010C089E311C082EE0FC080EEA4
:100C40000DC080E00BC086EE09C084EE07C089E2CB
:100C500005C085E303C08AE201C081E390E0089506
:100C60009091D60292FF0DC0282F2871283019F4D8
:100C7000877F846006C0282F2471243011F48B7F75
:100C8000886093FF0DC0282F2871283119F4877EC2
:100C9000846106C0282F2471243111F48B7E886171
:100CA0002091D70220FF0DC0382F3871383019F449
:100CB000877F816006C0382F3171313011F48E7F0B
:100CC000886021FF0DC0282F2871283119F4877EF4
:100CD000816106C0282F2171213111F48E7E886137
:100CE00094FD877E089508950E94A71F811102C078
:100CF0000E944F200E94B21F8093B2020E94BA1F2E
:100D00009093D7028093D6020E9473060E94B61F6A
:100D1000682F70E080E090E00E94D81C609185020E
:100D20007091860280918702909188020C94101D28
:100D3000E82FF0E0EE51FD4F80810895089580EA9C
:100D40008A95F1F7089500C008950C949F060895C0
:100D50000C94A7060C94A8060C94A7060C94AC0659
:100D6000F894E82FE295EF70F0E031A1282F2F7072
:100D700081E090E001C0880F2A95EAF7982F9095BE
:100D8000932391A392A1892B82A378940895089527
:100D90000C94C706EF92FF920F931F93CF93DF93AC
:100DA000CDB7DEB760970FB6F894DEBF0FBECDBFEC
:100DB0000E949E0880911101811131C0FE0131967F
:100DC0002AE0DF011D922A95E9F720EF298324EF1D
:100DD0002A8326E62B8327E92C8324E32D83CF0166
:100DE000E7E0F1E09E01255F3F4FDC014D91CD0131
:100DF0004193A217B307C9F726E0EFE3F1E0DE0164
:100E00001B9601900D922A95E1F7FC01A1E0B1E05B
:100E1000CE01419621912D93E817F907D9F78091DA
:100E20001101811102C095E001C090E09093ED02A4
:100E300085E0891B8093EC0207E011E0F8018191C5
:100E40008F010E94B006F1E00C301F07B9F701E0F6
:100E500011E087E0E82E81E0F82ED8018D918D0118
:100E60000E94B006E016F106C1F7E8EDF2E0A2EE4E
:100E7000B2E082EE92E011921D928E179F07D9F791
:100E800085E00E9448080E94ED0360960FB6F89432
:100E9000DEBF0FBECDBFDF91CF911F910F91FF90AD
:100EA000EF900C94B2080F931F93CF93DF9300D071
:100EB00000D01F92CDB7DEB70E9486086091ED0288
:100EC000882309F442C08E010F5F1F4F85E0F801AF
:100ED00011928A95E9F7862F90E0B8018E519D4FC7
:100EE0000E941F12811116C08091CE018F5F8093E6
:100EF000CE01863030F1E091EC02F0E0EE51FD4F92
:100F0000D801CE01069611921D92A817B907D9F7FC
:100F100011E018C01092CE01A091EC02B0E0AE51E9
:100F2000BD4FF8019E012A5F3F4F10E081919C91D7
:100F3000981711F08C9311E01196E217F307B1F7AF
:100F400001C010E00E94F1030DC070E06E517D4FB2
:100F50008091EC0290E08E519D4F0E9451120E94B0
:100F6000C80610E0812F0F900F900F900F900F90F8
:100F7000DF91CF911F910F9108958F929F92AF9221
:100F8000BF92CF92DF92EF92FF920F931F93CF9376
:100F9000DF9387E0A82E81E0B82EC8EDD2E09CE078
:100FA000E92E91E0F92E912C01E010E06501F501A8
:100FB0008081F894E82FE295EF70F0E021A18F7026
:100FC000A80102C0440F551F8A95E2F7CA01922F6B
:100FD000982B91A392A18095892382A378940E9453
:100FE000A306E1E0F1E020E030E0812C4191A42F64
:100FF000A295AF70B0E090968C9190E04F7002C0D7
:10100000959587954A95E2F780FD07C0802F022EBF
:1010100001C0880F0A94EAF701C080E0882A2F5F98
:101020003F4F2630310511F75FEFA51AB50AF601DB
:1010300080810E94B0060E94A5068881881619F05A
:10104000888281E001C080E0982A2196EA14FB049E
:1010500009F0ACCF6091ED0270E06E517D4F292D0B
:1010600045E088ED92E00E9449080E9453079920CC
:1010700011F081E090E0DF91CF911F910F91FF90EF
:10108000EF90DF90CF90BF90AF909F908F9008959A
:101090000895FF920F931F93CF93DF938C01F62E49
:1010A000D72FC42F222349F081E08093D1010E94E1
:1010B0009F219093D0018093CF018091D10188230B
:1010C000C1F08091CF019091D0010E94B721069785
:1010D00080F0EF2DFD2FD8014C2F50E0CD01801B6B
:1010E000910B841795071CF48D918193F7CF109283
:1010F000D101DF91CF911F910F91FF9008956E98CC
:1011000076988CB186FB882780F908958091D2016A
:1011100081110DC00E941729811102C082E001C017
:1011200081E08093D201823011F40E94122981E083
:101130009091D201913009F080E008950E947F08DB
:10114000809311018091110164E2882311F080E005
:1011500001C084E20E944E090E94860881110C940D
:10116000F61108950E948608811102C00C94FC11AA
:101170000895EF92FF920F931F93CF93DF938B010C
:10118000682F11110AC0442329F0E82FF0E0EE5A2D
:10119000FC4F6491762F862F75C0212F30E0E82F09
:1011A000F0E0442321F0EE5AFC4FE491F0E046E0F9
:1011B000049FC0011124CFEFD0E0BE010E9424297A
:1011C0004BEA4603C001479F900D1124800F911DEB
:1011D000800F911D982F990F890FAE01421B530B61
:1011E0004E9FD0014F9FB00D5E9FB00D11249B2FDD
:1011F000189FA0011124452F55278E01041B150BA4
:101200000E9FA0010F9F500D1E9F500D11247E01B7
:10121000E81AF108E29E8001E39E100DF29E100D87
:101220001124212F3327C21BD30BCE9F9001CF9FB8
:10123000300DDE9F300D112462307105A9F048F4A5
:101240006115710569F061307105C9F48B2F752F37
:101250000DC06430710581F058F06630710579F485
:101260007E2F8B2F932F0DC0832F7B2F9E2F09C096
:101270008E2F7B2F952F05C08E2F732F02C07E2FB0
:10128000852F692FDF91CF911F910F91FF90EF90E4
:10129000089541E00E94B90808950895E2E1F1E05F
:1012A0008083618308950E9449090895CF93DF9355
:1012B000762FE901682F842F0E9453097983688370
:1012C0008A83DF91CF910895413808F040E80C946B
:1012D00056098091EE02282F269530E02115310520
:1012E00019F48170826005C02231310524F08170CB
:1012F00082628093EE028091F102813818F080E8DA
:101300008093F102089588E090E00C947029CF92C8
:10131000DF92EF92FF926B017C010E946909B70195
:10132000A60188E090E0FF90EF90DF90CF900C94C2
:101330008E29EEEEF2E081E1808311828FEF8283CD
:1013400080E883831482A1EEB1E012968C9112970B
:10135000836012968C9360817181828193810C9459
:1013600087098091EE0280FF02C08695089580E093
:1013700008959091F202933018F49F5F9093F202D7
:10138000882351F06091EE027091EF028091F0029B
:101390009091F1020C948709089581E00C94B909A9
:1013A0009091F202992319F091509093F2028823C0
:1013B00051F06091EE027091EF028091F0029091F5
:1013C000F1020C948709089581E00C94D00921E082
:1013D00030E001C0220F8A95EAF78091E4012823CA
:1013E00081E009F480E0089570E00C94F20E8F9291
:1013F0009F92AF92BF92CF92DF92EF92FF920F93A4
:101400001F93CF93DF93CDB7DEB7C85DD1090FB679
:10141000F894DEBF0FBECDBF909013018091EE0215
:10142000982F917080FF08C0A090D601B090D7018E
:10143000A114B104A9F423C08091140120911501D5
:10144000821790F7E82FF0E0AF01440F551FE40F2B
:10145000F51FED50FD4F1182108212828F5FF0CF89
:10146000992369F0812C882D0E94E709882309F4CB
:1014700044C0F501C590D490C114D10469F4EAE0E8
:10148000F3E0AE014F5F5F4FBE0167527F4FCA016D
:101490003CC0B5E0CB0ED11C45E050E0B601CE011A
:1014A00001960E94522909810F3F39F110E08A818B
:1014B0009801280F311DC9012934310514F088E441
:1014C00090E07C01EE0CFF1C8E0D9F1DDC01AD50E9
:1014D000BD4F7D01C801880F991F080F191F0D50BE
:1014E0001D4F0E151F05A8F698014D816C818B814B
:1014F0000E9464090D5F1F4FF4CF22E0A20EB11CC1
:10150000839438E08312AFCFBACF249130E0D90171
:10151000AA0FBB1F2A0F3B1FD901AD50BD4FCD9065
:10152000DD90EC90DA01CD92DD92ED92AD01319635
:101530006A177B0751F720911201692DB3E02B9FA9
:10154000800D911D11240E94F409C852DF4F0FB67F
:10155000F894DEBF0FBECDBFDF91CF911F910F91E9
:10156000FF90EF90DF90CF90BF90AF909F908F90C3
:1015700008959091EE0290FF16C090911401209171
:101580001501921770F4E92FF0E0DF01AA0FBB1FDD
:10159000EA0FFB1FED50FD4F8183608342839F5F05
:1015A000F0CF0C94F7090895AF92BF92CF92DF92DB
:1015B000EF92FF920F931F93CF93DF9300D01F9270
:1015C000CDB7DEB7182FF62E042FE22E8091EE0253
:1015D00080FF77C0E82FE695AE2FB0E0AA58BE4F47
:1015E0009C919093E1018E7F823061F49E012F5F88
:1015F0003F4F812F0E9464094B8169818A810E943B
:10160000B90A3CC0923019F41091EF0237C09830FB
:10161000A9F5E8508E2F8170D82EE695F0E0EB5FAB
:10162000FC4FA590B490C12CBB2460911601C61646
:1016300018F52C2D30E0A29EC001A39E900DB29E05
:10164000900D112470E00E942429812FD11002C036
:10165000860F01C0861B90911401290F311DA9012D
:10166000440F551F240F351F2D503D4F402F6F2D18
:101670000E946409C394D9CF0E94F7098091EF02B8
:10168000181308C08091F002F81204C08091F10292
:10169000081729F08091E30182608093E3011093A1
:1016A000EF02F092F0020093F102EE2051F060910F
:1016B000EE027091EF028091F0029091F1020E948F
:1016C00087090F900F900F90DF91CF911F910F918D
:1016D000FF90EF90DF90CF90BF90AF900895EEEE27
:1016E000F2E09181282F4381628188E0890F0C9478
:1016F000D40A81E00C946F0BEEEEF2E09181282F7A
:101700004381628188EF890F0C94D40A81E00C94A4
:101710007C0BEEEEF2E0628121E1620F08F46FEFE4
:10172000282F438181810C94D40A81E00C94890B89
:10173000EEEEF2E0628121E1621B08F460E0282F06
:10174000438181810C94D40A81E00C94980BEEEED5
:10175000F2E0438121E1420F08F44FEF282F62812C
:1017600081810C94D40A81E00C94A70BEEEEF2E098
:10177000438121E1421B08F440E0282F62818181EE
:101780000C94D40A81E00C94B60B20E00C94D40A9B
:10179000FF920F931F93CF93DF93EC01F12C0FEF88
:1017A00010E060911601F616F0F4809114012F2DCF
:1017B00030E0280F311DC901880F991F280F391FEC
:1017C0002D503D4F70E0C8010E943829962F8C8122
:1017D0004091F1026091F002F99E800D11240E9467
:1017E0006409F394DECF0E94F7099A818C8190FFFF
:1017F00002C08F5F01C081508C83DF91CF911F9118
:101800000F91FF9008958091E30108951092E301F4
:10181000089525E0EEEEF2E0DC0101900D922A95AC
:10182000E1F74091E1015091E2016091E301709193
:10183000E401FC01458356836783708708956091B6
:10184000EE02669570E04BE050E087E191E00E9487
:101850005B29892B19F481E08093E2010E942D22FB
:101860009093D9018093D8018091E30184608093A3
:10187000E3010895E1EEF1E01182828184608283C8
:1018800008959091EE0290FF3AC09170811102C0CC
:10189000926006C0823110F0926202C0880F982BCD
:1018A0009093EE028091E30181608093E3016623CF
:1018B00051F06091EE027091EF028091F0029091F0
:1018C000F1020E9487096091EE02669570E04BE09C
:1018D00050E087E191E00E945B29892B19F00E947A
:1018E0003A0C02C00E941F0C81E08093DB01409102
:1018F000F1026091F0028091EF020C94C50B089503
:10190000682F9091EE02969581E0890F823108F060
:1019100081E00C94410C81E00C94800C682F909134
:10192000EE0296958FEF890F09F481E10C94410C3A
:1019300081E00C948E0C61E00C94410CEEEEF2E030
:1019400080818160808386950C949B0C60E00C9470
:10195000410C0E9483096093EE027093EF02809322
:10196000F0029093F1028091E30183608093E301A0
:101970000E9469098091EE0280FF03C086950C9455
:10198000A60C0895EEEEF2E080818160808386955A
:101990000C94A60C1092DF018091DE0181110E944F
:1019A000C20C0C941F0C21E030E0A90102C0440FCE
:1019B000551F8A95E2F7CA012091E401662311F0D0
:1019C000822B02C0809582238093E4018091E30101
:1019D00080618093E3018091E201811105C08091D3
:1019E000EE0286950C94A60C0895EEEEF2E080814E
:1019F0008E7F808360817181828193810E948709BB
:101A00000E943A0CE1EEF1E08281816082832FEF47
:101A100080E792E0215080409040E1F700C0000054
:101A20000C94F7098091EE0280FD0C94F50C0C9457
:101A30009E0CEEEEF2E080818E7F80830E943A0C55
:101A4000E1EEF1E08281816082832FEF80E792E016
:101A5000215080409040E1F700C000000C94F7094D
:101A60008091EE0280FD0C94190D0C94C20C0E9422
:101A70003A0C8091DF0181110AC081E08093DF017F
:101A80008091EE0281708093DE010C94190D08950F
:101A90001F93CF93DF93EC01162F8F8184FF03C038
:101AA00098859093E40180FF10C0888180FF0BC06F
:101AB0008091EE0281608093EE028881612F86958D
:101AC0000E94410C02C00E94190D8F8181FF06C047
:101AD000212F4B816A8189810E94D40A8F8182FFE4
:101AE00008C08E81882319F00E941F0C02C00E943A
:101AF0003A0C8F8183FF03C081E08093DB01DF918B
:101B0000CF911F9108958091E001811133C00E940F
:101B1000A71F811104C00E944F200E9499090E94B2
:101B200083096093EE027093EF028093F00290932A
:101B3000F1028091E30183608093E3016E7F61F4A1
:101B40000E9499090E9483096093EE027093EF024C
:101B50008093F0029093F1020E9469090E943A0C6E
:101B60008091EE0280FF03C086950E94A60C81E062
:101B70008093E0010895EF92FF920F931F93CF930C
:101B8000DF938091E201882309F467C08091E1012D
:101B9000E091EE02E695E81BE093DA01823051F421
:101BA000E695F0E0EE5FFC4FE491CE2FD0E008EC3C
:101BB0001BE004C0C0EDD7E00DE419E08091DB012B
:101BC000882361F01092DB010E942D229093D901AD
:101BD0008093D8011092DD011092DC010E942D2229
:101BE000E091D801F091D9019C012E1B3F0B2F3FB2
:101BF0003F4798F52091D5012223B1F01092D501ED
:101C00002091D3013091D401821B930B8F3F9F47CA
:101C100058F4205D3A483093D4012093D301809149
:101C2000E30188608093E301E090DC01F090DD0146
:101C3000CE0FDF1FD093D901C093D80188ED91E07A
:101C4000F80109958091DC019091DD01892B29F43F
:101C5000EF2819F081E08093D501DF91CF911F919A
:101C60000F91FF90EF900895882311F0FA0101C0C1
:101C7000FB010994CF93DF93C82FD62F0E94B1099F
:101C80008C1740F00E94B1098D1720F4DF91CF919D
:101C90000C948B0C8C2FDF91CF910C949B0C1F9389
:101CA000CF93DF93FB011281111197C0EC010E94C9
:101CB000E61E8272CC3CFCE5DF0709F47EC060F5CD
:101CC000C73CECE5DE0709F45FC0A8F4C43C9CE522
:101CD000D90709F448C028F4C33CDC4509F440C0E6
:101CE0003DC0C53C9CE5D90709F442C0C63CDC4573
:101CF00009F445C033C0C93CFCE5DF0709F44EC018
:101D000008F447C0CA3CECE5DE0709F44CC0CB3C04
:101D1000DC4509F44DC022C0C13D9CE5D90709F45A
:101D200055C060F4CE3CFCE5DF0709F44BC008F079
:101D300054C04DEC59E064EE79E01EC0C53DECE5C1
:101D4000DE0709F446C008F448C0C63D8CE5D80754
:101D500009F443C0CE35DD4509F43FC011E03DC074
:101D60000E94120D3AC048E95CE06BE87CE004C0D8
:101D70004BE85CE068E97CE00E94340E2EC046E847
:101D80005BE069E77BE0F8CF49E75BE066E87BE092
:101D9000F3CF44EA5BE065E97BE0EECF45E95BE049
:101DA00064EA7BE0E9CF42EC5BE063EB7BE0E4CF0D
:101DB00043EB5BE062EC7BE0DFCF44EE59E06DEC9F
:101DC00079E0DACF81E00E949B0C07C067E082E0F7
:101DD00002C061E188E00E943A0E812FDF91CF912D
:101DE0001F910895559A2BB12F7D3BB130624FB7AB
:101DF000F894FC01CB01880F991F680F791F6E0FB3
:101E00007F1FE617F70789F0819198E03BB9000042
:101E100000C087FF2BB9880F000000C000C000C0C1
:101E20002BB900C09A9591F7ECCF4FBF8FE594E0A6
:101E30000197F1F700C0000008950C9465038198A4
:101E4000899A84988C9A8FB1869581707C9902C00A
:101E500090E001C092E0892B8093EA0190911101FA
:101E600081E098279093E601891B8093E50108950E
:101E7000CF93E091EA01EE0FEE0FE093EA014FB14C
:101E800041FB882780F990E04FB144FB222720F9DD
:101E900030E044FF02C022E030E0822B932B8E2BF7
:101EA0008093EA01C091E6018F70E82FF0E0E857D7
:101EB000FE4F90818091E901890F8093E901823082
:101EC0006CF0EC2FF0E0E951FE4F80818F5F808352
:101ED00060E08C2F0E941D0F21E001C020E0809166
:101EE000E9018F3F64F4EC2FF0E0E951FE4F80816F
:101EF0008150808361E08C2F0E941D0F21E0809132
:101F0000E901082E000C990B62E070E00E9438296C
:101F10008093E901822FCF910895E091E601F0E0EE
:101F2000E951FE4F2081FC0120830895FF920F9319
:101F30001F93CF93DF93D091E5010D2F10E009514E
:101F40001E4FFC01C081F8018081C81BFC2E80E07F
:101F50001F145CF4FA94F80180818F5F808360E045
:101F60008D2F0E941D0F81E0F3CF9C2FC7FD90E0C5
:101F7000C91BCC2359F0CF5FF80180818150808349
:101F800061E08D2F0E941D0F81E0F3CF882339F08F
:101F9000DF91CF911F910F91FF900C94A114DF91CD
:101FA000CF911F910F91FF9008950F931F93CF939F
:101FB000DF93C42FD22FFC0182818823C9F0409384
:101FC000ED010E949F219093EC018093EB0180E250
:101FD0008C0F883008F057C0C77081E001C0880FAF
:101FE000CA95EAF7DF91CF911F910F910C94641677
:101FF0008091ED01481330C08091EB019091EC018C
:102000000E94B721883C910538F510E21D0FCD17CD
:10201000B9F080E28C0F883040F4C77081E001C0D5
:10202000880FCA95EAF70E946B16183028F581E0F0
:102030009D2F977001C0880F9A95EAF70E94641649
:10204000802F0E945B161830F0F4D77081E001C039
:10205000880FDA95EAF70AC080E28C0F883098F48E
:10206000C77081E001C0880FCA95EAF7DF91CF9170
:102070001F910F910C946B16802FDF91CF911F91C0
:102080000F910C945B16DF91CF911F910F910895E2
:102090000F939C01CB01243F4CE5340731F188F4C8
:1020A000293DFCE53F07D9F02A3D4CE5340779F19D
:1020B000283D3C45A9F506E221EE41EE68ED7CE5C0
:1020C0002BC0263FFCE53F07E1F0A8F0273F3C4549
:1020D00039F507E225EE46EE67EF7CE51DC007E225
:1020E00025EE45EE69ED7CE517C006E221EE40EEF7
:1020F00064EF7CE511C007E225EE44EE65EF7CE578
:102100000BC006E221EE42EE66EF7CE505C008E278
:1021100021E045EE6AED7CE50E94D50F80E008C025
:10212000FC018281882319F01092ED0101C081E049
:102130000F910895CF93DF93EC01FB0182818823F7
:1021400009F41FC1C230FCE5DF0708F41BC1C6312A
:102150009CE5D90738F09E012B5F3C4529303105BD
:1021600008F010C10E94BA1F9093D7028093D60244
:10217000C031ECE5DE0709F4C3C008F041C0C83047
:102180008CE5D80709F49AC0F0F4C430ECE5DE071A
:1021900009F487C068F4C2308CE5D80709F477C029
:1021A000C330DC4509F0E3C08091D602826076C07E
:1021B000C630ECE5DE0709F46EC008F07BC0809104
:1021C000D60288606BC0CC308CE5D80709F485C096
:1021D00068F4CA30ECE5DE0709F474C008F079C091
:1021E0000E94E2188091D602806858C0CE308CE5FB
:1021F000D80709F476C008F07FC08091D6028BC062
:10220000CC3FECE5DE0709F44FC018F5C3318CE58F
:10221000D80709F47DC078F4C131ECE5DE0709F494
:1022200073C0C231DC4509F0A2C00E94E21880915F
:10223000D6028F7733C0C5318CE5D80709F472C058
:1022400008F486C0CB3FDC4509F091C08091D702ED
:102250003EC0C115FDE5DF0709F45FC058F4CE3F6D
:102260009CE5D90709F444C008F43FC08091D70227
:1022700082602DC0C230FDE5DF0709F475C008F4A7
:102280005DC0C330DD4509F072C080E06EC0809152
:10229000D602816003C08091D60280618093D6020D
:1022A00066C08091D60211C08091D702826080936F
:1022B000D7025DC08091D6028062F0CF8091D602B5
:1022C0008064ECCF8091D60288608460E7CF816023
:1022D000EECF8091D6028E7FE1CF8091D6028D7FA6
:1022E000DDCF8091D602877FD9CF8091D70218C0E9
:1022F0008091D7028D7FDBCF8091D6028F7ECECFAB
:102300008091D6028F7DCACF8091D6028F7BC6CFB7
:102310008091D602877F8B7FC1CF8091D7028D7F3E
:102320008E7FC5CF8091D60282FB222720F991E0D3
:10233000922790FB82F990FB83F9B0CF8091D7026E
:10234000982F909591708E7F892B90FB81F9AFCF5C
:102350000E94E2188091D60287FB222720F991E0A3
:10236000922790FB87F99ACF81E00E9451208091BB
:10237000D6029091D7020E94CB1F0E94E21880E003
:1023800001C081E0DF91CF910895CF93DF93863133
:102390009C4541F5EB010E94E61E982F8A81209111
:1023A000320130913301882379F09A7A81E009F47F
:1023B00080E08093EE01911102C069E201C065E303
:1023C000C9010E94EC200AC08091EE01811102C077
:1023D00069E201C065E3C9010E94F7200E94381F2D
:1023E00080E001C081E0DF91CF91089562E070E06C
:1023F00082E291E00C94D21262E070E082E291E01D
:102400000C94DB120E94030C882361F08BEF91E0A7
:102410000E94090C81E090E00E94B413892B11F412
:102420000C94060C08958091FA01883039F460E02C
:102430008BEF91E00E94480D1092FA010895CF931E
:10244000DF93D62FC72F0E94021280E090E00E94F7
:10245000B413892B11F5ED2FFC2F80E090E0DC0107
:10246000AC50BE4F2C912193019685309105B9F760
:1024700089EF91E00E94960F0E941222DC01CB01AD
:102480000296A11DB11D8093F0019093F101A093DC
:10249000F201B093F30181E001C080E0DF91CF91C0
:1024A0000895CF93DF93D62FC72F0E941312609108
:1024B000F0017091F1018091F2019091F3010E947D
:1024C000F521ED2FFC2F80E090E02191DC01AC5054
:1024D000BE4F2C93019685309105B9F789EF91E0B5
:1024E000DF91CF910C948D0F8EE1489B02C08150FB
:1024F000E1F7489BFECF0895589880E28A95F1F75E
:10250000589A0895FC012AE02A95F1F790E020E01E
:1025100080E031E0261779F040E14A95F1F7880F25
:10252000489B02C08160932700C0000040E14A95AB
:10253000F1F72F5FEFCF20E12A95F1F729B100C025
:10254000000030E13A95F1F7217092272081920F37
:1025500090830895EF92FF920F931F93CF93DF9391
:102560001F92CDB7DEB719828C017C01E60EF11CFB
:102570000E151F0559F00E94741268E0CE010196F5
:102580000E948212F80181938F01F2CF81E099813C
:10259000911180E00F90DF91CF911F910F91FF90EB
:1025A000EF900895909306028093050260930402D1
:1025B000509A589A0895909306028093050260936A
:1025C00004025098589AE89AE9E6F0E080818C7FFE
:1025D00080830895615091E001C0990F6A95EAF7F0
:1025E00020E031E0992361F0492F482319F0589AEF
:1025F000232701C0589840E24A95F1F79695F2CF0B
:10260000222311F0589A01C0589880E28A95F1F778
:1026100058980895FF920F931F93CF93DF93EC0187
:102620008C01060F111DC017D10741F0F9900E94CF
:102630007C1268E08F2D0E94EA12F5CFDF91CF91D6
:102640001F910F91FF9008951F920F920FB60F9256
:1026500011240F931F932F933F934F935F936F9387
:102660007F938F939F93AF93BF93EF93FF93CF93FA
:10267000DF931F92CDB7DEB719820E94741267E014
:10268000CE0101960E948212382F369536953695E6
:10269000932F96959570232F2570920F292F2370D5
:1026A000969596958770920F891348C089818111FC
:1026B00045C080910402831708F440C080E18A95E8
:1026C000F1F7589A509AA2E0AA95F1F700C000914C
:1026D000050210910602B8E03B9F000D111D112468
:1026E0005898F8016581662321F0868197810E94C0
:1026F0000A130E947C12F0E1FA95F1F7589850986D
:10270000589A80E18A95F1F7D80112966C91129748
:10271000662369F013968D919C9114970E94AA12DA
:10272000D801ED91FC91811105C082E004C0D8016F
:10273000ED91FC9188E080830E9474120F90DF91EC
:10274000CF91FF91EF91BF91AF919F918F917F9129
:102750006F915F914F913F912F911F910F910F902A
:102760000FBE0F901F9018950F931F93CF93DF9379
:102770002091040230E0281739070CF471C09C0145
:1027800093E0220F331F9A95E1F7C0910502D09193
:102790000602C20FD31FF894509A589845E04A9504
:1027A000F1F70000982F969595708570890F982FF6
:1027B000937086958695890F8901082B0E947C125B
:1027C00084E08A95F1F700C067E0802F0E94EA124A
:1027D00040E14A95F1F75098589A489902C000C0D4
:1027E000FCCF87E090E0489B0EC0019751F4509ACF
:1027F000589AE881F98181E08083789481E090E0C3
:1028000031C000C0F0CF6D81662381F08E819F8141
:102810000E94AA1281110AC0509A589AE881F9813F
:1028200082E08083789482E090E01CC00E94741261
:1028300080E28A95F1F75898509A40E14A95F1F76D
:102840006A81662321F08B819C810E940A130E9479
:102850007C12E881F9811082789480E090E002C0D7
:1028600084E090E0DF91CF911F910F9108959093B4
:102870000C0280930B020895E0910B02F0910C0280
:10288000309721F00190F081E02D099480E00895C7
:10289000E0910B02F0910C02309799F020913E01EB
:1028A000222359F02091D60227FF07C0DC012C918A
:1028B00011962C93119725E02C930280F381E02D43
:1028C000099408952091090230910A0228173907C6
:1028D00071F090930A0280930902E0910B02F0914B
:1028E0000C02309721F00680F781E02D09940895BD
:1028F00020910702309108022817390771F0909350
:10290000080280930702E0910B02F0910C023097CD
:1029100021F00084F185E02D099408950E94AB21F7
:1029200060932002709321028093220290932302ED
:1029300060931C0270931D0280931E0290931F02ED
:1029400008950E94AB21609320027093210280932E
:1029500022029093230260931802709319028093CD
:102960001A0290931B02089585B7806885BF85B7CA
:10297000806885BF08950C94860808950C94BD1452
:102980000C9471030C94BD140C94C2140C94BD14DB
:102990000E94B41485EA9FE10E945A220E94C61444
:1029A0000C94C4140E94BE140C94BD140E94962171
:1029B0000E94EC210E94CA060E94830D0E941F0FF4
:1029C000E6EDF2E08081806880838091D60290916C
:1029D000D7020E94CB1F0C94C0149F92AF92BF925B
:1029E000CF92DF92EF92FF920F931F93CF93DF93DB
:1029F000CDB7DEB72A970FB6F894DEBF0FBECDBFB6
:102A00000E94BD0781110E948E148EE0A82E82E0E4
:102A1000B82E00E010E0902E802F0E949806D82E4D
:102A2000F501C1905F01C826B1F40F5F1F4F0A3056
:102A3000110589F78FEF89838A831B820E949F216A
:102A40008160782F9D838C8349815A816B818D8130
:102A50000E9490152FC08091B20281FD0E949E06B7
:102A6000E12CFF24F3948C2D8F21F1F00E94BB14F4
:102A7000882399F0EE829F82DF2081E009F480E0D4
:102A800088870E949F218160782F9A8789874E814D
:102A90005F8168858A850E949015F801E25FFD4F8D
:102AA0008081F826F08206C0E394FF0CF6E0EF1276
:102AB000DACFBBCF0E94BB0D0E94380F81110E945C
:102AC000A1140E943C1490910D028917B9F00E9444
:102AD0003C1480930D022A960FB6F894DEBF0FBE09
:102AE000CDBFDF91CF911F910F91FF90EF90DF90BD
:102AF000CF90BF90AF909F900C9462042A960FB62F
:102B0000F894DEBF0FBECDBFDF91CF911F910F9123
:102B1000FF90EF90DF90CF90BF90AF909F9008957F
:102B2000DF92EF92FF920F931F93CF93DF93CDB776
:102B3000DEB72B970FB6F894DEBF0FBECDBFF42ED5
:102B4000052F162FE72ED82E61110E94061FFE01B9
:102B5000319686E0DF011D928A95E9F77E2D4F2D93
:102B6000502F612F8D2D9E810E949B1B2B960FB69F
:102B7000F894DEBF0FBECDBFDF91CF911F910F91B3
:102B8000FF90EF90DF900895FC01808191810E9479
:102B9000861E0895CF93882309F448C0C82F8CEF70
:102BA0008C0F813AD0F46C2F8091320190913301D7
:102BB0000E946C20882349F06C2F80913201909103
:102BC00033010E94F7200E94381F6C2F8091320140
:102BD000909133010E94EC200CC080E28C0F883071
:102BE00058F4C77081E001C0880FCA95EAF70E94C7
:102BF000E91ECF910C94381FEBE5EC0FE33040F465
:102C0000F0E0EA53FE4F808190E0CF910C94621483
:102C1000C85AC73158F4EC2FF0E0EE0FFF1FE8560A
:102C2000FE4F80819181CF910C947814CF910895BB
:102C3000882349F1682F8CEF860F813A38F4809110
:102C40003201909133010E94F7200CC080E2860F80
:102C5000883050F4677081E001C0880F6A95EAF708
:102C60000E94EF1E0C94381F8BE5860F833020F4F2
:102C700080E090E00C946214685A673120F480E0A0
:102C800090E00C94781408951F93CF93DF93182F3E
:102C9000EB010E94CA15209741F08FE99FE0019750
:102CA000F1F700C000002197F6CF812FDF91CF917F
:102CB0001F910C941816893319F060E070E002C07F
:102CC00060E570E00C944416882321F00E94E91E10
:102CD0000C94381F0895882321F00E94EF1E0C9455
:102CE000381F0895CF92DF92EF92FF920F931F93B8
:102CF000CF93DF937C01062FC72FFC01D281158172
:102D000012951F700E94BE1E882399F0DD2389F062
:102D10008C2F807F803421F080E2800F883048F053
:102D200082E00E94881F0E94BE1E91E0D82ED92604
:102D300001C0D12CCC2EC2948FE0C8228C2D90E003
:102D4000FC01EA5AFF4F0C944C298C2F807FCF70E6
:102D5000882311F0C295C07FDD2399F0CC2309F4BC
:102D600082C180E2800F883010F0011104C08C2FE6
:102D70000E94E91E03C08C2F0E94F91E0E94381F7A
:102D800072C1802F0E941816CC2309F491C180E2F1
:102D9000800F883010F0011104C08C2F0E94EF1EAC
:102DA00003C08C2F0E94FF1E0E94381F81C18C2FF0
:102DB000807FCF70803211F0C295C07F002319F060
:102DC0000130C9F022C0DD2371F0112341F0113030
:102DD00031F40E94191F8C2B0E94211F69C10E948F
:102DE000191F8C2B1DC0112319F0113009F460C17B
:102DF0000E942E1F25C0DD2321F0163008F058C197
:102E00000EC0153008F054C11BC0DD2361F0112342
:102E100031F0F701858180FF26C18F7085838C2F6B
:102E20000E94641645C1112359F0093309F02CC1E1
:102E3000FFEF27EE83E0F15020408040E1F722C110
:102E40008C2F0E946B1634C18C2F869586958370CB
:102E500019F0813061F02CC1DD2321F0802F9C2FEF
:102E6000937002C080E090E00E94621429C1DD23CB
:102E700021F0802F9C2F937002C080E090E00E9490
:102E800078141EC18C2F837009F045C0D11114C174
:102E9000402F429546954770440F440F602F6F7046
:102EA000862F90E0A0E0B0E0042E04C0880F991FA8
:102EB000AA1FBB1F0A94D2F704FF10C00FE010E056
:102EC00020E030E004C0000F111F221F331F4A957D
:102ED000D2F7009510952095309503C000E010E0E2
:102EE0009801C695C695C370BC01CD01602B712BAE
:102EF000822B932BC23049F058F4C13019F00E9454
:102F0000EC1CDAC00E94DA1CD7C00E94FE1CD4C0A0
:102F10000E94D81CD1C0DD2319F08C2F817001C014
:102F20008695882309F4C8C0402F4295469547707E
:102F3000440F440F602F6F70862F90E0A0E0B0E048
:102F4000042E04C0880F991FAA1FBB1F0A94D2F732
:102F500004FF10C00FE010E020E030E004C0000FDC
:102F6000111F221F331F4A95D2F700951095209507
:102F7000309503C000E010E09801C695C695C37077
:102F8000BC01CD01602B712B822B932BC23049F0F9
:102F900058F4C13019F00E94C61D8EC00E94B41DA5
:102FA0008BC00E94D81D88C00E94121D85C0CF70A2
:102FB000DD2339F08C2F0E944D1D802F0E94641656
:102FC0007BC0802F0E946B168C2F0E946E1D74C0D8
:102FD000023F01F128F4003F41F0013FA1F03FC062
:102FE000033FF9F0043F39F13AC0DD2341F01530D9
:102FF00008F05EC08C2F8F710E94931D59C016304F
:1030000008F056C0F7CFDD2339F08C2F8F710E9466
:103010004D1D4EC0DD23C9F38C2F8F710E946E1D94
:1030200047C0DD2329F08C2F8F710E94381D40C0CE
:103030000E941E1D3DC0DD2349F0CF718C2F0E94E0
:103040004D1D63E08C2F0E946D1F32C081E00E94F5
:10305000881F123068F182E00E94881F29C0DD239A
:1030600031F0112391F2802F0E94CA1521C0112343
:1030700099F2093349F49FEFE7EEF3E09150E04015
:10308000F040E1F700C00000802F0E94181610C029
:103090004C2F4F70602FC7010E946B040E94491C87
:1030A0000FC04C2F4F70602FC7010E946E0408C0E4
:1030B00088EF8C0D843020F40E943C140E9462043E
:1030C000DD20C9F00E94BA1E80FD15C0F7011282F2
:1030D0000E94B41E0E944D1DC7010E949C180E94B0
:1030E000B41EDF91CF911F910F91FF90EF90DF9071
:1030F000CF900C946E1DDF91CF911F910F91FF9097
:10310000EF90DF90CF9008950F931F93CF93DF93AD
:10311000EC01688179818A810E94911E8C010E9454
:10312000EA1D0E94C61CB801CE010E947216DF91F2
:10313000CF911F910F910895CF93DF93EC01988168
:1031400089812B813C81232B31F08F3F31F481E049
:103150009F3F19F403C081E001C080E080FD19C0E9
:10316000CE010E94030481110CC00E94BE1E882360
:1031700081F08A81882369F082E0DF91CF910C94FD
:10318000881FCE010E948418CE01DF91CF910C944C
:10319000E203DF91CF91089580E090E00E946214F5
:1031A00080E090E00E9478140E94061F0E94161F83
:1031B0000C94381F80913201909133010E940221BA
:1031C0000C94CC180E94F61E0C94DA18E92FE295A4
:1031D000EF704E2F50E0FA013297EE30F105B0F467
:1031E000EA59FF4F0C944C29803F91F018F4883E27
:1031F00068F40EC0843F51F40BC0883E48F0813F14
:1032000029F406C093FB882780F9089580E008958B
:1032100081E008950E94861E0E94E6180895CF93CB
:10322000DF9300D000D01F92CDB7DEB70F900F9084
:103230000F900F900F90DF91CF910895CF93DF9370
:1032400000D000D000D0CDB7DEB726960FB6F894E8
:10325000DEBF0FBECDBFDF91CF9108951F93CF93F7
:10326000DF93C091250216E080912602C81799F0DD
:10327000D0E01C9FF0011D9FF00D1124E95DFD4F72
:103280004081518162817381848195810E941E19E0
:103290002196C770E9CFDF91CF911F91089540919A
:1032A0005702509158026091590270915A028091D0
:1032B0005B0290915C020C941E190F931F93CF93A5
:1032C000DF9380915C0282958F7009F05DC08091E0
:1032D0005902882309F458C08091250210912602D2
:1032E0006091570270915802C0915A02D0915B02CE
:1032F00091E06F3F09F090E0292F06E0811709F473
:1033000043C0209721F07F3F21F030E003C031E03F
:1033100001C0322F90E030FD34C0089FF001099FBA
:10332000F00D1124DF01A95DBD4F11963C9111975D
:10333000371327C03C91361324C012963C91129744
:1033400031111FC013964D915C9114974C1B5D0B6E
:10335000483C5105B0F480915C028F70806180938D
:103360005C02E45DFD4F80818F708061808387E522
:1033700092E00E949C18DF91CF911F910F910C94C5
:103380002E1901968770BACFDF91CF911F910F91BF
:1033900008959F92AF92BF92CF92DF92EF92FF92E9
:1033A0000F931F93CF93DF93CDB7DEB761970FB61F
:1033B000F894DEBF0FBECDBF8C0185E0F801DE01C1
:1033C0001D9601900D928A95E1F7F8014081518197
:1033D000E280909157026091580220915A023091F8
:1033E0005B022115310531F06F3F31F481E09F3FE1
:1033F00019F403C081E001C080E0F82FF1709F2E26
:1034000080FD46C1F801A380B48087E5C82E82E024
:10341000D82EF0905902F501E21BF30BFF2009F4BE
:10342000DFC080915C02E83CF10508F09BC0282FCA
:10343000207F09F052C0561313C0491311C0FE2C4F
:10344000E1100EC08F70806180935C020E944F1962
:10345000C6010E949C1880915C02F801858358C1C6
:10346000AB2831F05F3F31F481E04F3F19F403C0E6
:1034700081E001C080E080FD03C081E08E2502C0B4
:1034800080E090E0F82FF170FF2E80FF1CC080914B
:1034900025022091260236E0821709F417C190E038
:1034A000389FF001399FF00D1124E95DFD4F6181D6
:1034B000561306C06081461303C06281E61203C042
:1034C00001968770E9CFFE2CEE2009F421C180918E
:1034D0005C02816080935C025AC0561306C0491397
:1034E00004C0E11002C0F8019FC04D875E878D8542
:1034F0009E850E940A19882379F1EE2069F12091B6
:103500005C02822F82958F7090E0029774F0809118
:1035100057029091580298878F831986BB86AA8696
:103520002C87CE0107960E949C1886E0F801A7E53B
:10353000B2E001900D928A95E1F70E945D190E9418
:103540004F190DC0561729F14D875E878D859E85D1
:103550000E940A1981112CC0C8010E949C18FF24E6
:10356000F394D6C0282F207F69F77A2DB98AA88ACC
:103570006E2D89890E940F1987E592E00E949C18A0
:1035800086E0F60111928A95E9F70E944F19F12C15
:10359000BFC04913D9CFE110D7CFF8018583C80147
:1035A0000E949C1886E0F60111928A95E9F7B0C056
:1035B000EE2091F220915C02822F82958F7090E034
:1035C00002970CF4B2CF80915702909158029A83DF
:1035D00089831B82BD82AC822E83CE010196A3CF4C
:1035E000E83CF10508F047C0FE2CEE2009F4B4CF0A
:1035F000561330C049132EC020915C0220FD21C01B
:10360000822F82958F70482F50E041155105C9F0E7
:10361000F80125834F30510541F08F5F982F929527
:10362000907F822F8F70892B8583C8010E949C1800
:1036300086E0F801A7E5B2E001900D928A95E1F7E6
:1036400042C086E0F801A7E5B2E001900D928A95AC
:10365000E1F75EC04D875E878D859E850E940A19C1
:10366000811163CF80915C02816080935C02C8010C
:103670000E949C184DC07A2DB98AA88A6E2D89891E
:103680000E940F1986E0F60111928A95E9F71BC096
:10369000EE2009F461CF4D875E878D859E850E945F
:1036A0000A19F82E882309F457CF86E0F801A7E518
:1036B000B2E001900D928A95E1F787E592E00E94D1
:1036C000C4150E945D190E944F1922C04D875E8764
:1036D0008D859E850E94861E292F22952F7022306F
:1036E00028F49F7039F0811105C00BC0243028F4F4
:1036F0009F7049F4805E883020F0C8010E949C18B9
:103700009F2CF92C05C0F8019581907F99F7F9CF8E
:103710008F2D61960FB6F894DEBF0FBECDBFDF913F
:10372000CF911F910F91FF90EF90DF90CF90BF90BE
:10373000AF909F9008951F93CF93DF93CDB7DEB7DF
:103740002C970FB6F894DEBF0FBECDBF4F835887BE
:1037500069877A878B879C87CE0107960E94C91953
:103760008823D1F09F8188852A853B85232B31F0E2
:103770008F3F31F481E09F3F19F403C081E001C025
:1037800080E080FD47C04F81588569857A858B85AB
:103790009C850E941E193EC086E0FE013796DE0120
:1037A000119601900D928A95E1F7FF81E8856A856F
:1037B0007B856115710531F0EF3F31F481E0FF3F0A
:1037C00019F403C081E001C080E080FD23C0209196
:1037D000260230E0C90101968770992740912502A1
:1037E00050E084179507F1F1F983EA837D836C83B8
:1037F00096E0929FD001939FB00D1124A95DBD4F1B
:10380000FE01319601900D929A95E1F78093260280
:103810000E942E1916E080912502909126028917A8
:1038200071F1189FC0011124895D9D4F0E94C91933
:10383000882329F1E09125021E9FF0011124E95D02
:10384000FD4F4081518162817381848195810E9405
:103850001E198091250290E0019687709927809328
:103860002502D9CF0E94E21810922602109225025A
:10387000E7E5F2E086E0DF011D928A95E9F72C96F4
:103880000FB6F894DEBF0FBECDBFDF91CF911F9171
:103890000895EF92FF920F931F93CF93DF938C01C4
:1038A000892B09F46CC0F12CEE24E394E8012196F5
:1038B000F8018491843740F4843008F051C081309D
:1038C00081F0823019F15BC0853709F444C0A8F15A
:1038D0009CE7980F903708F052C08F770E94181617
:1038E00041C00E5F1F4FFE01849190E2980F983007
:1038F00050F48770FE2D01C0FF0F8A95EAF78F2FD5
:103900000E94091F14C00E94CA152DC00E5F1F4FD0
:10391000FE01849190E2980F983060F48770FE2D3C
:1039200001C0FF0F8A95EAF78F2F0E940F1F0E9498
:10393000381F19C00E94181616C00E5F1F4FFE01D7
:10394000C491CC2381F08FE99FE00197F1F700C08B
:103950000000C150F6CF0E5F1F4FFE01F49003C070
:103960000E94CA158E018F2D882309F49FCFEFE99D
:10397000FFE03197F1F700C000008150F5CFDF91F3
:10398000CF911F910F91FF90EF90089508950895A2
:103990000C94C71C0C94C81C0E94CA1C609389021A
:1039A00070938A0280938B0290938C020C94CC18B3
:1039B0000C94CC1C0F931F930091890210918A02E2
:1039C00020918B0230918C02602B712B822B932BD8
:1039D0001F910F910C94CC1C0F931F93009189029F
:1039E00010918A0220918B0230918C026023712306
:1039F000822393231F910F910C94CC1C0F931F9340
:103A00000091890210918A0220918B0230918C02E0
:103A100060277127822793271F910F910C94CC1C4C
:103A20000C9479030E94101D6093850270938602A6
:103A300080938702909388020C94CC1860E070E029
:103A4000CB010C94121D611571058105910529F4B6
:103A500081E0442361F080E00895DC01CB0104C0E3
:103A6000B695A795979587954A95D2F78170089551
:103A70000F931F9341E050E060E070E08A019B01EA
:103A800004C0000F111F221F331F8A95D2F7C901EE
:103A9000B8011F910F910C94121D0F931F9341E0D9
:103AA00050E060E070E004C0440F551F661F771FB0
:103AB0008A95D2F78091850290918602A091870223
:103AC000B09188028A019B01082B192B2A2B3B2BD2
:103AD000C901B8011F910F910C94121D0F931F93F0
:103AE00041E050E060E070E004C0440F551F661FE5
:103AF000771F8A95D2F74095509560957095809183
:103B0000850290918602A0918702B09188028A0175
:103B10009B01082319232A233B23C901B8011F91C4
:103B20000F910C94121D0F931F9341E050E060E041
:103B300070E004C0440F551F661F771F8A95D2F7A7
:103B40008091850290918602A0918702B0918802AF
:103B50008A019B01082719272A273B27C901B80199
:103B60001F910F910C94121D0F931F9300918502CA
:103B7000109186022091870230918802602B712B70
:103B8000822B932B1F910F910C94121D0F931F9357
:103B9000009185021091860220918702309188025F
:103BA00060237123822393231F910F910C94121D84
:103BB0000F931F9300918502109186022091870236
:103BC0003091880260277127822793271F910F91D8
:103BD0000C94121D0895292F220F920F990F890F0F
:103BE000E82FE695E695E695877051E001C0550F00
:103BF0008A95EAF785E0E89FF0011124E35AFD4F2A
:103C000020E030E070E04081CB01022E02C09695AA
:103C100087950A94E2F7817081958427852384270C
:103C200081932F5F3F4F2530310569F70895292F84
:103C3000220F920F990F890F682F669566956695EA
:103C4000982F977085E0689FB001112440E050E004
:103C500080E0FB01E40FF51FE35AFD4F208130E0C7
:103C6000092E02C0369527950A94E2F72170332772
:103C7000042E01C0220F0A94EAF7822B4F5F5F4F98
:103C80004530510531F70895BF92CF92DF92EF9200
:103C9000FF920F931F93CF93DF938C01C090850207
:103CA000D0908602E0908702F0908802809189028D
:103CB00090918A02A0918B02B0918C02C82AD92AD5
:103CC000EA2AFB2ACFE1D0E0D701C6010C2E04C0BE
:103CD000B695A795979587950A94D2F780FD04C06D
:103CE000219790F7B12C07C0BC2EB8018C2F0E94F1
:103CF0008A040197A9F38B2DDF91CF911F910F912A
:103D0000FF90EF90DF90CF90BF900895CF93DF9317
:103D1000EC010E94441EBE010E948A04DF91CF91F3
:103D200008951F93CF93DF93EB0190912402992381
:103D300021F0CB010E94861E13C0882349F0CB01DD
:103D40000E94441E182F682FCE010E94EB1D04C054
:103D5000CB010E94171E182FBE01812F0E948A04DA
:103D6000DF91CF911F91089580918D028595859562
:103D70008595089580918D028770089590918D02A8
:103D8000977081E009F480E008959091D70292FB4A
:103D9000222720F9281751F080FB92F99093D7023F
:103DA0008091D6029091D7020C94CB1F08958091F8
:103DB000D70282FB882780F991E089270C94C51EE1
:103DC00081E00C94C51E80E00C94C51E8091B10268
:103DD00008959091B102892B8093B1020895809546
:103DE0009091B10289238093B10208951092B1029B
:103DF00008959091B002892B8093B0020895809528
:103E00009091B00289238093B00208951092B0027D
:103E100008959091AF02892B8093AF020895809509
:103E20009091AF0289238093AF0208951092AF0260
:103E3000089580918E02089508950C941C1F0C948F
:103E40001D1F9091D70292FD08C090918E02981785
:103E500021F080938E020C941F1F089580918E0292
:103E6000882329F010928E0280E00C941F1F089581
:103E7000E0913201F09133018091B1028083E091B1
:103E80003201F091330190818091B002892B8083BF
:103E9000E0913201F091330190818091AF02892B42
:103EA000808380918E02882381F0E0913201F0912D
:103EB00033019081892B808380913201909133016D
:103EC0000E94562081110E942E1F809132019091F4
:103ED00033010C9448140C941C1F9091D70292FD4E
:103EE00010C098E0899F90011124262B20938D0209
:103EF0000E944D1D80918D028595859585950C9428
:103F00006B1F0C944D1D10928D0280E00C946B1F62
:103F100020918D028095822380938D02982F977037
:103F200041F430E0482F082E000C550B24173507BC
:103F300021F49091D70292FF07C0859585958595CC
:103F40000E946E1D0C94831F089580E0089580E008
:103F500090E00E94762921E08A3E9E4F09F020E001
:103F6000822F089582E090E00C94682983E090E02D
:103F70000C946829CF9384E090E00E946829C82FB0
:103F800082E290E00E9468292C2F30E0A901582B92
:103F9000CA01CF910895CF93C92F682F84E090E094
:103FA0000E947C296C2F82E290E0CF910C947C29B6
:103FB000AB01BC018FE090E00C948E29AB01BC01F9
:103FC00083E190E00C948E2960E070E0CB010C94CA
:103FD000DE1F60E070E0CB010E94D81F0C94E41F4C
:103FE0006AEE7EEF80E090E00E949A2960E082E035
:103FF00090E00E947C2960E083E090E00E947C29B0
:104000001092890210928A0210928B0210928C02F6
:1040100060E084E090E00E947C2960E082E290E031
:104020000E947C2960E085E090E00E947C2960E0AD
:1040300086E090E00E947C296FEF87E090E00E948C
:104040007C2940E050E0BA0188E090E00E948E298F
:1040500060E08DE090E00E947C2940E050E0BA01F1
:1040600088E190E00E948E2960E087E190E00E9464
:104070007C2940E050E0BA018CE190E00E948E295A
:1040800060E070E080E290E00E949A2940E050E019
:10409000BA0188E190E00E948E290C94E91F0C94EB
:1040A000F01F682F8EE090E00C947C29FC01329682
:1040B00080913E01882331F08091D60287FF02C0B3
:1040C0009EE101C096E080E0915028F021912223EA
:1040D000D9F38F5FF9CF0895662351F120913E0106
:1040E0002223E9F02091D60227FF19C0462F4695DA
:1040F000469546954E31E0F4677021E030E002C00D
:10410000220F331F6A95E2F7FC01E40FF11D828153
:1041100090E02823392381E0232B69F409C0FC01B6
:10412000329608962191621729F0E817F907D1F71E
:1041300080E0089581E008959C01FC0132969FEF94
:1041400080E04191461789F09F3F19F4411101C069
:10415000982F8F5F8630A9F79F3F39F0F901E90F5B
:10416000F11D97FDFA956283089508959C012A5FD9
:104170003F4FFC014281461301C012820196821713
:104180009307B9F70895262F2695269526952E3163
:1041900068F4FC01E20FF11D677021E030E001C01E
:1041A000220F6A95EAF78281282B22830895262F11
:1041B0002695269526952E3170F4FC01E20FF11D0F
:1041C000677021E030E001C0220F6A95EAF7209580
:1041D000828128232283089520913E01222329F001
:1041E0002091D60227FD0C94C3200C949C20209192
:1041F0003E01222329F02091D60227FD0C94D720DE
:104200000C94B62020913E01FC013296222331F01D
:104210008091D60287FF02C08EE101C086E0DF01F7
:104220001D928A95E9F7089508950C9414210C9431
:104230001421CF930E9417210E94BD070E941521CF
:10424000C0E08C2F0E949806811104C0CF5FCA3055
:10425000C1F701C081E0CF9108950C9414210C9412
:104260002D218091D703843059F10E942F2180E0C5
:104270000E9462040E94370D1092B30220E488E18C
:1042800090E00FB6F894A895809360000FBE20933D
:10429000600083B7817F846083BF83B7816083BF01
:1042A0007894889583B78E7F83BF0FB6F894A895CE
:1042B00080916000886180936000109260000FBE62
:1042C00008950C9414210E94E2180E943C140E944C
:1042D00062040E94CA0C0C9461211F920F920FB6C7
:1042E0000F9211248F939F93AF93BF938091B3024A
:1042F000811113C08091CB039091CC03A091CD0389
:10430000B091CE034196A11DB11D8093CB03909334
:10431000CC03A093CD03B093CE03BF91AF919F91F7
:104320008F910F900FBE0F901F90189582E084BD63
:1043300093E095BD9AEF97BD80936E0008952FB7D7
:10434000F8948091CB039091CC03A091CD03B091D0
:10435000CE032FBF08952FB7F8946091CB037091CF
:10436000CC038091CD039091CE032FBF08959C0183
:104370004FB7F8948091CB039091CC03A091CD03DB
:10438000B091CE034FBF821B930B089578941F9278
:104390000F920FB60F9211248F939F93AF93BF93F9
:1043A0008091CB039091CC03A091CD03B091CE032B
:1043B0000196A11DB11D8093CB039093CC03A093D4
:1043C000CD03B093CE03BF91AF919F918F910F908A
:1043D0000FBE0F901F9018951092CF031092D0032C
:1043E0001092D1031092D2030895CF92DF92EF92F0
:1043F000FF926B017C010E94860881110EC00E9411
:10440000AB21C61AD70AE80AF90AC092CF03D092A4
:10441000D003E092D103F092D203FF90EF90DF90AF
:10442000CF9008950F931F930E948608882321F050
:104430001F910F910C94AB210E94AB210091CF03EF
:104440001091D0032091D1033091D203600F711FDE
:10445000821F931F1F910F9108950E94860881115A
:104460000C949F210E941222CB01089581E0809339
:10447000E00080E28093D8001092C9008FE19EE4B2
:104480000197F1F700C0000087E090EBDC0180931A
:10449000E0039093E103A093E203B093E3039CE075
:1044A00088E10FB6F894A895809360000FBE9093B2
:1044B0006000FFCF9093CB018093CA010895809153
:1044C000D40208950895CF93DF9300D01F92CDB703
:1044D000DEB79091D703943019F589837B836A8383
:1044E00082E08093E9008FEF9091E800815095FD84
:1044F00006C095ED9A95F1F700008111F5CF8091F6
:10450000E80085FF0DC040E050E063E070E0CE01C0
:1045100001960E9474248091E8008E778093E800D1
:104520000F900F900F90DF91CF910895BC0184E020
:104530000C946322BC0183E00C946322CF93DF933D
:1045400020913E01222339F02091D60227FF03C09B
:1045500060E222E002C068E021E02093E9002FEF52
:104560003091E800215035FD06C035ED3A95F1F760
:1045700000002111F5CF2091E80025FF1DC0EC01BE
:1045800080913E01811105C040E050E068E070E09C
:1045900003C070E040E050E0CE010E94742480919E
:1045A000E8008E778093E80080E2FE01A4EBB2E0A1
:1045B00001900D928A95E1F7DF91CF910895809156
:1045C000D603811109C00E9405260E9462268091AF
:1045D000E20084608093E20008951092D60308956B
:1045E00008950895089542E061EC81E00E947E25DF
:1045F00042E261EC82E00C947E258091D903833005
:1046000009F460C030F4813071F0823009F499C04F
:1046100008958A3009F485C08B3009F46BC0893065
:1046200009F0A7C020C08091D803813A09F0A1C049
:104630008091E800877F8093E8008091DC0390916F
:10464000DD03892B21F460E284EB92E003C060E09B
:1046500080E090E070E00E94BF248091E8008B77BA
:104660008093E80008958091D803813209F081C0D9
:104670008091DC039091DD03029708F07AC080916D
:10468000E800877F8093E8008091E80082FD05C004
:104690008091D7038111F8CF6CC02091F3008091F5
:1046A000F20090E0922B029729F48091F1008B7F29
:1046B000813021F48091F1008093D4028091E80050
:1046C0008B7753C08091D803813A09F052C0809112
:1046D000DC039091DD03892B09F04BC08091E80049
:1046E000877F8093E8008091E80080FFFCCF809175
:1046F0003E0136C08091D8038132D9F58091DC0328
:104700009091DD03892BA9F58091E800877F809344
:10471000E8000E94B3258091DA0380933E010C9457
:10472000E2188091D803813221F58091E800877FDB
:104730008093E8000E94B3258091DB038093D5022B
:1047400008958091D803813AA1F48091E800877F91
:104750008093E8008091E80080FFFCCF8091D50233
:104760008093F1008091E8008E778093E8000C94AC
:10477000B325089584B7877F84BF0FB6F894A895B2
:1047800080916000886180936000109260000FBE8D
:1047900090E080E80FB6F8948093610090936100F8
:1047A0000FBE0E94C8140E9405260E9462268091B6
:1047B000E20084608093E20078940E94F7280E94CF
:1047C000D61484E391E00E9437148091D70385309A
:1047D000A9F48091D703853079F40E94312180912A
:1047E000D5038823B1F30E941921882391F30E94F5
:1047F0005E240E94E218EDCF0E9463210E94ED1416
:104800000E94D214E2CF0C940524292F33272330A1
:104810003105C9F060F42130310581F022303105D5
:1048200009F044C08BE390E022E834E043C0213239
:104830003105E1F02232310549F138C082E190E0E2
:104840002DEB34E037C099278130910549F028F0ED
:10485000029761F5E2E5F4E005C0EEE7F4E002C09E
:10486000E4E6F4E0849190E09F0124C061157105B5
:1048700041F061307105D1F489E090E02DEA34E037
:1048800019C089E090E024E934E014C06115710595
:1048900041F06130710551F48DE690E02FEC34E089
:1048A00009C080E490E02CE335E004C080E090E0B3
:1048B00020E030E0FA0131832083089580E189BD52
:1048C00082E189BD09B400FEFDCF8091D8008F7DC3
:1048D0008093D8008091E00082608093E000809116
:1048E000E00081FDFCCF0895CF92DF92EF92FF921E
:1048F0000F931F93CF93DF93EC018B017A010E94FA
:10490000D225811133C0E114F10439F0F70180811F
:104910009181081B190BC80FD91FC12CD12C01156F
:10492000110519F18091E80085FD16C08091E8001D
:104930008E778093E800E114F10449F0F70180815B
:104940009181C80ED91ED182C08285E00FC00E941D
:10495000D225882321F30AC089918093F100015068
:104960001109FFEFCF1ADF0ADACF80E0DF91CF9194
:104970001F910F91FF90EF90DF90CF9008952091BD
:10498000DE033091DF032617370748F06115710504
:1049900039F42091E8002E772093E80001C0B90196
:1049A000FC0120E06115710579F18091D70388231E
:1049B000F1F18530F1F18091E80083FD3CC08091F8
:1049C000E80082FD2EC08091E80080FFEBCF2091AF
:1049D000F3008091F20090E0922B6115710551F087
:1049E0008830910538F421912093F10061507109CC
:1049F0000196F3CF21E0089709F020E08091E800CC
:104A00008E778093E800CECF2111CFCF0AC080915E
:104A1000D703882361F0853061F08091E80083FD41
:104A20000AC08091E80082FFF2CF80E0089582E022
:104A3000089583E0089581E008952091DE03309188
:104A4000DF032617370748F06115710539F4209107
:104A5000E8002E772093E80001C0B901FC0120E0B6
:104A60006115710591F18091D703882309F440C045
:104A7000853009F43FC08091E80083FD3DC08091FE
:104A8000E80082FD2FC08091E80080FFE9CF2091EF
:104A9000F3008091F20090E0922B6115710559F0BE
:104AA0008830910540F424912093F10031966150B3
:104AB00071090196F2CF21E0089709F020E080917A
:104AC000E8008E778093E800CBCF2111CCCF0AC0CD
:104AD0008091D703882361F0853061F08091E800F0
:104AE00083FD0AC08091E80082FFF2CF80E0089544
:104AF00082E0089583E0089581E00895982F97302B
:104B000068F59093E900981739F07091EC002091C6
:104B1000ED005091F00003C0242F762F50E021FDCE
:104B200002C09F5FECCF3091EB003E7F3093EB00F3
:104B30003091ED003D7F3093ED003091EB0031601E
:104B40003093EB007093EC002093ED005093F00055
:104B50002091EE0027FDE5CF80E008958F708093CF
:104B6000E90081E008958091D80387FF11C080910A
:104B7000E80082FD05C08091D7038111F8CF11C0F4
:104B80008091E8008B770BC08091D703882349F090
:104B90008091E80080FFF8CF8091E8008E778093C5
:104BA000E80008952091E4003091E50095E64091F9
:104BB000EC00842F817040FF23C08091E80080FDCD
:104BC0001DC08091D703882399F0853099F080919A
:104BD000EB0085FD11C04091E4005091E5002417E1
:104BE000350729F3915011F09A01E1CF84E008953F
:104BF00082E0089583E0089581E0089580E00895BB
:104C00004091E80042FFDDCF08950E9473260E9484
:104C10007B26E0EEF0E0808181608083E8EDF0E0CB
:104C200080818F77808319BCA7EDB0E08C918E7F57
:104C30008C9380818F7E80831092D60308950F938A
:104C40001F93CF93DF930E9473260E947B26C8EDAB
:104C5000D0E088818F778883888180688883888185
:104C60008F7D888319BC1092D7031092D3031092C2
:104C7000D5031092D40300EE10E0F80180818B7F01
:104C8000808388818160888342E060E080E00E94C8
:104C90007E25E1EEF0E080818E7F8083E2EEF0E021
:104CA000808181608083808188608083F801808139
:104CB0008E7F8083888180618883DF91CF911F916F
:104CC0000F910895E8EDF0E080818F7E8083E7ED1D
:104CD000F0E080818160808384E082BF81E0809306
:104CE000D6030C941F26E8EDF0E080818E7F808350
:104CF0001092E20008951092DA001092E1000895F7
:104D00001F920F920FB60F9211242F933F934F9340
:104D10005F936F937F938F939F93AF93BF93EF9323
:104D2000FF938091E10082FF0BC08091E20082FF3F
:104D300007C08091E1008B7F8093E1000E94F628FC
:104D40008091DA0080FF1FC08091D80080FF1BC0D7
:104D50008091DA008E7F8093DA008091D90080FF05
:104D60000DC080E189BD82E189BD09B400FEFDCF9F
:104D700081E08093D7030E94DF2205C019BC109206
:104D8000D7030E94ED228091E10080FF19C080913D
:104D9000E20080FF15C08091E2008E7F8093E200E8
:104DA0008091E20080618093E2008091D80080626F
:104DB0008093D80019BC85E08093D7030E94F1222C
:104DC0008091E10084FF30C08091E20084FF2CC01C
:104DD00080E189BD82E189BD09B400FEFDCF8091EB
:104DE000D8008F7D8093D8008091E1008F7E8093E2
:104DF000E1008091E2008F7E8093E2008091E200EA
:104E000081608093E2008091D303882311F084E0D5
:104E100007C08091E30087FD02C081E001C083E00C
:104E20008093D7030E94F2228091E10083FF29C082
:104E30008091E20083FF25C08091E100877F80930D
:104E4000E10082E08093D7031092D3038091E100C8
:104E50008E7F8093E1008091E2008E7F8093E2005C
:104E60008091E20080618093E20042E060E080E0B7
:104E70000E947E258091F00088608093F0000E945F
:104E8000F022FF91EF91BF91AF919F918F917F9110
:104E90006F915F914F913F912F910F900FBE0F90A7
:104EA0001F9018951F920F920FB60F9211242F93F7
:104EB0003F934F935F936F937F938F939F93AF93A2
:104EC000BF93CF93DF93EF93FF93C091E900CF702F
:104ED0008091EC00D82FD17080FDD0E81092E900CD
:104EE0008091F000877F8093F00078940E9496274D
:104EF0001092E9008091F00088608093F000CD2B43
:104F0000CF70C093E900FF91EF91DF91CF91BF91F6
:104F1000AF919F918F917F916F915F914F913F9151
:104F20002F910F900FBE0F901F9018951F93CF9346
:104F3000DF93CDB7DEB7AA970FB6F894DEBF0FBEEA
:104F4000CDBFE8EDF3E08091F100819323E0E03EF6
:104F5000F207C9F70E94FD228091E80083FF2EC16D
:104F60008091D8039091D903492F50E04A305105E0
:104F700008F024C1FA01EC58FF4F0C944C298038FA
:104F800021F0823809F01AC108C08091D4039091B1
:104F9000D503992389F082600FC08091DC038F7064
:104FA000873008F00BC18093E9008091EB0085FB0E
:104FB000882780F91092E9009091E800977F9093FC
:104FC000E8008093F1001092F100D1C0282F2D7FCE
:104FD00009F0F4C0882319F0823061F0EFC08091AD
:104FE000DA03813009F0EAC0933009F080E0809361
:104FF000D5032EC08091DA0381112AC08091DC0391
:105000008F702FEF280F263008F0D8C08093E9006A
:105010002091EB0020FF1CC0933021F48091EB0025
:10502000806214C09091EB0090619093EB0021E0BE
:1050300030E0A90102C0440F551F8A95E2F7409362
:10504000EA001092EA008091EB0088608093EB0008
:105050001092E9008091E800877F8093E8000E9429
:10506000B325ACC08111AAC01091DA031F778091DB
:10507000E3008078812B8093E3008091E800877FB4
:105080008093E8000E94B3258091E80080FFFCCF68
:105090008091E30080688093E300111102C082E0F8
:1050A00001C083E08093D70389C08058823008F024
:1050B00085C08091DA039091DB038C3D53E0950726
:1050C00079F583E08A838AE289834FB7F894DE0119
:1050D000139620E03EE051E2E32FF0E050935700BA
:1050E000E49120FF03C0E295EF703F5FEF708E2FD9
:1050F00090E0EA3010F0C79601C0C0968D939D9362
:105100002F5F243149F74FBF8091E800877F80935C
:10511000E8006AE270E0CE0101960E94BF2416C04A
:105120006091DC037091DD03AE014F5F5F4F0E9421
:105130000324BC01892B09F441C09091E800977FBA
:105140009093E80089819A810E941D258091E80052
:105150008B778093E80032C0803881F58091E80039
:10516000877F8093E8008091D3038093F100809142
:10517000E8008E7772CF811121C08091DA0390917F
:10518000DB0399270297D4F48091E800877F80930E
:10519000E8008091DA038093D3030E94B3258091C5
:1051A000D303811106C08091E30087FD02C081E036
:1051B00001C084E08093D7030E94F3228091E8002D
:1051C00083FF0AC08091E800877F8093E800809188
:1051D000EB0080628093EB00AA960FB6F894DEBFD6
:1051E0000FBECDBFDF91CF911F9108950895CF934A
:1051F0008091D7038823A1F0C091E900CF709091EE
:10520000EC00892F817090FD80E8C82B1092E90096
:105210008091E80083FD0E949627CF70C093E9003B
:10522000CF9108950E9405261092D7030895E8EDC6
:10523000F0E08081806180838AE18A95F1F700C087
:105240008091D90081700895AA1BBB1B51E107C052
:10525000AA1FBB1FA617B70710F0A61BB70B881F06
:10526000991F5A95A9F780959095BC01CD01089595
:1052700097FB072E16F4009407D077FD09D00E9403
:10528000242907FC05D03EF4909581959F4F089501
:10529000709561957F4F0895EE0FFF1F0590F49173
:1052A000E02D0994FB01DC0102C005900D924150F4
:1052B0005040D8F70895FC014150504030F0019023
:1052C0000616D1F73197CF010895882799270895B9
:1052D000F999FECF92BD81BDF89A992780B50895BE
:1052E000A6E1B0E044E050E00C94A229A8E1B0E0CF
:1052F00042E050E00C94A229262FF999FECF92BDEE
:1053000081BDF89A019700B4021639F01FBA20BD8A
:105310000FB6F894FA9AF99A0FBE08950396272FBC
:105320000E947D290E947C29252F0E947D29242FFF
:105330000C947D290196272F0E947D290C947C29AD
:10534000DC01CB01FC01F999FECF06C0F2BDE1BD45
:10535000F89A319600B40D9241505040B8F7089534
:04536000F894FFCFEF
:105364000136679394969737F06634350000000051
:10537400000100480048480108090A0B0C0D0E0FF3
:105384001011EF0104F00106F401FA0109FB010018
:1053940000008F025F229E2262229A229622013608
:1053A40035F1679496E200E900EA00B500B600B76B
:1053B40000CD008301CC008A0192019401210223D3
:1053C4000224022502260227022A02B300B4006F37
:1053D40000700081828300010202020202020808B6
:1053E400080808080808080800FF0100010000FF79
:1053F400FF0000010001FF00E200E900EA00B5003F
:10540400B600B700CD008301CC008A01920194015B
:105414002102230224022502260227022A02B300C3
:0A542400B4006F0070008182830065
:00000001FF
