:100000000C944F030C9458180C9496030C9496037C
:100010000C9496030C9496030C9496030C949603FC
:100020000C9496030C9496030C94682C0C943A2D23
:100030000C94A9260C9496030C9496030C949603A6
:100040000C9496030C9496030C9496030C949603CC
:100050000C9496030C9402270C9496030C9496032C
:100060000C9496030C9496030C9496030C949603AC
:100070000C9496030C9496030C9496030C9496039C
:100080000C9496030C9496030C9496030C9496038C
:100090000C9496030C9496030C9496030C9496037C
:1000A0000C9496030C9496030C949603DF12E212C0
:1000B000021313131B13261329132C132F13751359
:1000C0007513321335133A134713541357135B1335
:1000D0006813DB1BDB1B0D1C0D1C5A1C8E1D8E1D9B
:1000E0008E1D781C0D1D1E1D1E1D7E1D8E1D8E1D40
:1000F000871D2A1E2A1E3C1E3C1E331E3C1E3C1E13
:100100003C1E2A1E2A1E381E3C1E3C1E381EA72DD1
:10011000CE2DC62ECE2DC62E1A2E3D2EC62E942E98
:10012000A32E4A01400136012C010000000C1EDA0A
:10013000DAFF00000000000CAAFFFFFF0000000033
:10014000000C80FF80FF00000000000C8466FFFFB1
:100150000000000003531E001F00200021002200A9
:100160002B0014001A00080015001700E00004001E
:100170001600070009000A00E1001D001B00060030
:10018000190005002900E300E200350001512C00B0
:10019000230024002500260027004C001C00180026
:1001A0000C00120013002A000B000D000E000F00BF
:1001B0003300280011001000360037005200E5001F
:1001C000E10002512D00500051004F0001001E00BF
:1001D0001F0020002100220001001E001F0020003F
:1001E0002100220001002300240025002600270012
:1001F00001002D00380025022E022E000100010012
:100200000100010001000100230024002500260058
:100210002700010031002F023002230222020100D8
:100220003402260227021E023802010034002F0089
:1002300030001F0201000100010001000100010067
:1002400001000100010001000100010001000100A6
:1002500001003A003B003C003D003E0001003F0031
:1002600040004100420043000100440045000100FD
:100270000100010001000100010001000100010076
:100280000100010001000100010001002002240220
:1002900031022102350201005000510052004F008E
:1002A000010001005E5D5F5D605D615D0100010058
:1002B0000100010001000100010001000100000037
:1002C0000000540055002A00010000002400250011
:1002D00026005600010000005C005D005E00570033
:1002E0000100000059005A005B00580001000100A5
:1002F0002700630001000100000000000000000072
:1003000000000100000000000000000000000100EB
:1003100000000000000000000000010000000000DC
:1003200000000000000001000100010001000100C8
:100330000100010000000000000000002A2B28003E
:100340000000000000000000000000000000002984
:10035000000000002C1E3420212224342627252EC4
:10036000362D3738271E1F202122232425263333FC
:10037000362E37381F0405060708090A0B0C0D0E28
:100380000F101112131415161718191A1B1C1D2FF4
:100390003130232D350405060708090A0B0C0D0E14
:1003A0000F101112131415161718191A1B1C1D2FD4
:1003B0003130354C0000000000000000000000005B
:1003C000000000000000000000000000000000002D
:1003D00000000000000000007E0F00D4FFFFFFC7F8
:1003E00000000078643214FFAA7F55400001020328
:1003F0000405393837363534432A2B2C2D2E242347
:100400002221204241161718191A100F0E0D0C4008
:10041000060708090A0B3A3B3C3D3E3F4733323161
:10042000302F252627282946451F1E1D1C1B11126B
:10043000131415440001010101010101010102022F
:100440000202020202020203030303030303030482
:10045000040404040404050505050506060606064D
:10046000070707070708080808090909090A0A0A07
:100470000B0B0B0C0C0C0D0D0D0E0E0E0F0F0F10A9
:100480001011111112121313141415151616171733
:10049000181819191A1A1B1B1C1D1D1E1E1F20209F
:1004A000212222232424252626272829292A2B2CE9
:1004B0002D2D2E2F30313232333435363738393A0C
:1004C0003B3C3D3E3F404142434445464748494A04
:1004D0004C4D4E4F50515354555658595A5B5D5ED2
:1004E0005F616264656668696B6C6D6F707273756D
:1004F00077787A7B7D7E8082838587888A8C8E8FD1
:1005000091939596989A9C9EA0A2A3A5A7A9ABADFE
:10051000AFB1B3B5B7BABCBEC0C2C4C6C9CBCDCFEC
:10052000D1D4D6D8DBDDDFE2E4E7E9EBEEF0F3F59A
:10053000F8FAFDFF100348007900700072006500B2
:100540006F006E0000001603480061007200720028
:100550007900740065004B00650079000000040319
:10056000090409025B00030100A0FA09040000016C
:10057000030101000921110100012240000705814A
:100580000308000A09040100020300000009211108
:100590000100012222000705820320000107050354
:1005A00003200001090402000103000000092111D9
:1005B000010001226D000705840320000A120110CA
:1005C0000100000008F620030001000102000106FE
:1005D00060FF0961A1010962150026FF00952075E1
:1005E0000881020963150026FF0095207508910215
:1005F000C005010980A101850319012AB700150171
:1006000026B700950175108100C0050C0901A101F4
:10061000850419012AA002150126A0029501751072
:100620008100C005010906A1018505050719E0291A
:10063000E7150025019508750181020507190029B4
:10064000EF1500250195F0750181020508190129B2
:1006500005950575019102950175039101C005018C
:100660000906A101050719E029E7150025019508EC
:10067000750181029501750881010507190029FF9F
:10068000150026FF00950675088100050819012947
:1006900005950575019102950175039101C011241D
:1006A0001FBECFEFDAE0DEBFCDBF04B603FE27C02A
:1006B0008091EE039091EF03A091F003B091F103CC
:1006C0008730904BA740B04BD1F41092EE031092BC
:1006D000EF031092F0031092F10314BE84B7877FEA
:1006E00084BF0FB6F894A8958091600088618093CC
:1006F0006000109260000FBEE0E0F8E3099511E0A1
:10070000A0E0B1E0E2E4FFE502C005900D92A83D53
:10071000B107D9F723E0A8EDB1E001C01D92AE3ECC
:10072000B207E1F70E9429290C949F2F0C94000036
:10073000CF93FB018F352DE5920731F120F48E35F3
:100740009D4549F04FC080362DE5920721F1813655
:100750009D4531F147C0C281CC2309F444C0C0910A
:100760000001CC2341F040E060E080E00E94CA0D2F
:10077000109200010EC00E94AE0E88E00E94AB0EE7
:1007800081E0809300012FC0C281CC2361F10E94DF
:10079000350FC0E028C0C281CC2329F186E01FC0FC
:1007A000C281CC2301F10E94980B883098F00E94FE
:1007B000980B823178F48091DA019091DB010196F7
:1007C0006AE070E00E94202F8093DA019093DB01B1
:1007D000885F05C01092DB011092DA0188E00E9468
:1007E000AB0ED7CFC1E08C2FCF910895811107C0F8
:1007F000662311F089EA01C08AEA0E94911B81E018
:100800000895089582E291E09093E5018093E401D8
:100810000C941E0FCF92DF92EF92FF926B017C013E
:1008200040E00E945922682F80E00E94D80E41E0EB
:10083000C701B6010E945922682F81E00E94D80E9C
:1008400042E0C701B6010E945922682F82E00E944F
:10085000D80E43E0C701B6010E945922682F83E0F9
:100860000E94D80EC701B601FF90EF90DF90CF90A5
:10087000089581E008950C94980308950C943D0424
:100880001F93CF93DF9300D000D01F92CDB7DEB778
:1008900049835A836B833091320289819A81311165
:1008A00014C0662359F0222349F00E947A23182F9E
:1008B000682F89819A810E94212303C00E944D23C1
:1008C000182F69817A81812F04C00E947A2369815F
:1008D0007A810F900F900F900F900F90DF91CF9132
:1008E0001F910C944714FC01262F40815181628195
:1008F000738184810C944004CF93DF93EC0160E01A
:100900000E947304BE01DF91CF910C943E048F923C
:100910009F92AF92BF92CF92DF92EF92FF920F938E
:100920001F936B017C0181E090E0A0E0B0E04C01FE
:100930005D0104C0880C991CAA1CBB1C4A95D2F707
:10094000AC01BD0104C0440F551F661F771F2A95D7
:10095000D2F7482959296A297B2904C0880F991F91
:10096000AA1FBB1F0A95D2F78A019B010C211D21EA
:100970002E213F21401751076207730739F4BC014C
:10098000CD016C297D298E299F290AC080959095DB
:10099000A095B095BC01CD016C217D218E219F21B8
:1009A0001F910F91FF90EF90DF90CF90BF90AF908D
:1009B0009F908F9008950F93382F262F6091930268
:1009C000709194028091950290919602042F432F8A
:1009D0000E9487040F910C9448220E9451080C94A5
:1009E0008B080C94870808950E94181E0E94F30437
:1009F0002FEF84E39CE0215080409040E1F700C05D
:100A000000000C9472270F931F93CF93DF938C01F8
:100A100061E00E947304EC01B8010E943712882340
:100A200009F44BC0B801CE010E943B04882309F4AD
:100A300044C0B801CE010E947C158823F1F1B801B1
:100A4000CE010E94CE158823C1F1B801CE010E94CB
:100A5000F916882391F1B801CE010E945410882321
:100A600061F1F8018281882309F1CA358DE5D80743
:100A7000C1F050F4C115FCE5DF0781F0CE3DDC4547
:100A8000A9F40E948B2519C0CB35EDE5DE0761F096
:100A9000CC35DD4559F40E940D2408C00E94F404B1
:100AA0000CC00E94162402C00E941924C801DF91C4
:100AB000CF911F910F910C94390480E0DF91CF9179
:100AC0001F910F910895DF92EF92FF920F931F9362
:100AD000CF93DF93E82FF0E0EC5CFC4FD490282F0D
:100AE00026952695269530E0F901EC52FC4F0491AD
:100AF000877010E0082E02C0159507950A94E2F75A
:100B000001701127F901EC53FC4FE490F12C082EF1
:100B100002C0F594E7940A94E2F791E0E922FF24F9
:100B2000F901EC54FC4FC491D0E002C0D595C795B3
:100B30008A95E2F7C170DD270115110519F081EEE4
:100B40000E94001BE114F10419F086EE0E94001BC4
:100B50008D2D0E94911BEF2819F086EE0E944E1BEE
:100B6000012B19F081EE0E944E1BCD2B51F08CE22F
:100B7000DF91CF911F910F91FF90EF90DF900C9438
:100B8000911BDF91CF911F910F91FF90EF90DF901C
:100B90000895EF92FF920F931F93CF93DF93EC0191
:100BA000162F0AE08881882309F455C0813009F0A6
:100BB00043C08981813041F47E0182E0E80EF11C5E
:100BC0008A810E94911B09C0823049F47E01E2E0D3
:100BD000EE0EF11C8A810E94001BE7012FC08330BA
:100BE00041F47E01F2E0EF0EF11C8A810E944E1B5F
:100BF000F4CF843011F0219621C02A81229680E022
:100C000090E030E0205331092A30310558F4089F34
:100C1000A001099F500D1124C901840F951F219631
:100C20002881EFCF009751F0EFE9FFE03197F1F71E
:100C300000C000000197F6CF0E9463052196812F26
:100C4000882309F4AFCFEFE9FFE03197F1F700C057
:100C500000008150F5CFDF91CF911F910F91FF9050
:100C6000EF90089560E00C94C9050C94010481E0B4
:100C700008950C943706CF93C82F0E9435068C2F09
:100C80000E943906CF91089580E090E0089508957C
:100C9000880F991FFC01EC51FC4F859194910895A8
:100CA000CF93DF930E9447140E946207EC018115E5
:100CB000904508F043C0C11580E4D80708F0CBC0C8
:100CC000C03ED10528F5C03CD10508F0B3C0C83AF4
:100CD000D10578F4C53AD10508F0A4C0C130D105DA
:100CE00009F4ECC008F4E8C0C430D10508F0E6C04F
:100CF000E3C0CF3BD10508F0DFC0C85AD0E0CC0F2D
:100D0000DD1FCB5BDE4F0990D881C02DD464D6C0E7
:100D1000C11590E2D90750F4C11521E0D20708F0BF
:100D2000CDC0C83ED10508F4C9C0C6C0C11580E316
:100D3000D80708F086C0CE019F707FC0C11595E529
:100D4000D90708F043C0C11524E5D20708F09AC0BE
:100D5000C11582E5D80708F5C11591E5D90708F056
:100D60007DC0CE0174E0969587957A95E1F7837002
:100D70009C2F937021E030E002C0220F331F9A9520
:100D8000E2F73C68382BCF70C695C69580E2C89FC5
:100D9000E0011124C22BD32B91C09E012370332775
:100DA0008C2F86958695C115D34508F05CC0C1E0AF
:100DB000D0E002C0CC0FDD1F2A95E2F720E2829F2F
:100DC000C0011124C82BD92BDC6878C0C11529E5D6
:100DD000D207A0F4C11588E5D80708F058C0C1159E
:100DE00096E5D90708F068C08C2F0E94F6078F712E
:100DF000C82FD0E0DC2FCC27D06260C0C1152AE517
:100E0000D20708F449C0CE0190568115904208F0EF
:100E100053C08D2F8F710E94F607DD27D0628F712E
:100E2000D82B4CC0C55AD0E0CD58DE4FC881D0E099
:100E3000D06444C0CE01805C91090E944806EC0158
:100E40003DC0CE019927D3FF03C0EC01D86C36C05A
:100E5000EC01D06C33C0DF70D06A30C0DC2FCC27FF
:100E6000C16FD06A2BC0C1E0D0E002C0CC0FDD1F43
:100E70002A95E2F720E2829FC0011124C82BD92BCA
:100E8000DA681CC0DC2FCC27C46FD06A17C0DC2FF7
:100E9000CC27C06FD06A12C08C2F8F700E94F607CB
:100EA00094E0D695C7959A95E1F7CF70D0E0DC2F06
:100EB000CC27D069C82B02C0C0E0D0E0CE01DF91C2
:100EC000CF9108958238910569F1B0F4813391058D
:100ED00009F46DC048F48932910509F463C08A327F
:100EE000910509F469C008958533910509F455C049
:100EF00089339105B9F00895833E910569F138F47D
:100F0000803E9105B1F0823E910509F10895863E3B
:100F10009105A9F1873E9105B9F1843E910509F04B
:100F200064C023C02091E40220FD4FC021FD4DC0CC
:100F300008958091E40280FD44C08091E50280FF25
:100F400044C08091E40284FD42C083EE4DC0809194
:100F5000E40282FF38C0F5CF8091E40282FD33C005
:100F60008091E50280FD31C0ECCF8091E50281FFE8
:100F700032C08091E40284FD2AC087EE35C08091A2
:100F8000E40283FF26C0F5CF8091E40283FD21C0F7
:100F90008091E50281FD1FC0ECCF8091E40285FDC8
:100FA0001CC01DC08091E40285FD19C016C080914F
:100FB000E40286FD16C017C08091E40286FD13C0CE
:100FC00010C089E311C082EE0FC080EE0DC080E03A
:100FD0000BC086EE09C084EE07C089E205C085E338
:100FE00003C08AE201C081E390E008959091E40299
:100FF00092FF0DC0282F2871283019F4877F846054
:1010000006C0282F2471243011F48B7F886093FF51
:101010000DC0282F2871283119F4877E846106C0FD
:10102000282F2471243111F48B7E88612091E502F0
:1010300020FF0DC0382F3871383019F4877F816058
:1010400006C0382F3171313011F48E7F886021FF56
:101050000DC0282F2871283119F4877E816106C0C0
:10106000282F2171213111F48E7E886194FD877EB5
:1010700008950C9411120E949A098FE39CE901973C
:10108000F1F700C000000E949A0980E00E947508F4
:1010900080FF04C00E9439080C94722708950C94B4
:1010A0003B080E94E324811102C00E948B250E940C
:1010B000EE248093C0020E94F6249093E502809370
:1010C000E4020E944F080E94F224682F70E080E042
:1010D00090E00E940E2260919302709194028091A0
:1010E0009502909196020C944622E82FF0E0E05190
:1010F000FD4F80810895089580EA8A95F1F708955B
:1011000000C008950C947C0808950C9484080C94F5
:1011100085080C9484080C948908F894E82FE295CB
:10112000EF70F0E031A1282F2F7081E090E001C036
:10113000880F2A95EAF7982F9095932391A392A16F
:10114000892B82A37894089508950C94A408EF92B3
:10115000FF920F931F93CF93DF93CDB7DEB76097C6
:101160000FB6F894DEBF0FBECDBF0E947B0A809100
:101170001101811131C0FE0131962AE0DF011D927B
:101180002A95E9F720EF298324EF2A8326E62B838B
:1011900027E92C8324E32D83CF01E7E0F1E09E01D2
:1011A000255F3F4FDC014D91CD014193A217B3075D
:1011B000C9F726E0EFE3F1E0DE011B9601900D9206
:1011C0002A95E1F7FC01A1E0B1E0CE014196219121
:1011D0002D93E817F907D9F780911101811102C009
:1011E00095E001C090E09093FB0285E0891B80931D
:1011F000FA0207E011E0F80181918F010E948D0849
:10120000F1E00C301F07B9F701E011E087E0E82EAC
:1012100081E0F82ED8018D918D010E948D08E01695
:10122000F106C1F7E6EEF2E0A0EFB2E080EF92E067
:1012300011921D928E179F07D9F785E00E94250A0B
:101240000E94ED0460960FB6F894DEBF0FBECDBFCE
:10125000DF91CF911F910F91FF90EF900C948F0A27
:101260000F931F93CF93DF9300D000D01F92CDB781
:10127000DEB70E94630A6091FB02882309F442C032
:101280008E010F5F1F4F85E0F80111928A95E9F7F3
:10129000862F90E0B80180519D4F0E945317811115
:1012A00016C08091DC018F5F8093DC01863030F1C5
:1012B000E091FA02F0E0E051FD4FD801CE01069630
:1012C00011921D92A817B907D9F711E018C0109212
:1012D000DC01A091FA02B0E0A051BD4FF8019E01DF
:1012E0002A5F3F4F10E081919C91981711F08C93E9
:1012F00011E01196E217F307B1F701C010E00E9468
:10130000F1040DC070E060517D4F8091FA0290E0D1
:1013100080519D4F0E9485170E94A50810E0812FE3
:101320000F900F900F900F900F90DF91CF911F9122
:101330000F9108958F929F92AF92BF92CF92DF92BA
:10134000EF92FF920F931F93CF93DF9387E0A82E26
:1013500081E0B82EC6EED2E09CE0E92E91E0F92EB5
:10136000912C01E010E06501F5018081F894E82FEF
:10137000E295EF70F0E021A18F70A80102C0440F48
:10138000551F8A95E2F7CA01922F982B91A392A13B
:101390008095892382A378940E948008E1E0F1E09F
:1013A00020E030E0812C4191A42FA295AF70B0E0F5
:1013B00090968C9190E04F7002C0959587954A95D4
:1013C000E2F780FD07C0802F022E01C0880F0A942B
:1013D000EAF701C080E0882A2F5F3F4F26303105B1
:1013E00011F75FEFA51AB50AF60180810E948D08FA
:1013F0000E9482088881881619F0888281E001C0E5
:1014000080E0982A2196EA14FB0409F0ACCF6091A1
:10141000FB0270E060517D4F292D45E086EE92E0A1
:101420000E94260A0E943009992011F081E090E084
:10143000DF91CF911F910F91FF90EF90DF90CF90B0
:10144000BF90AF909F908F9008950895FF920F9353
:101450001F93CF93DF938C01F62ED72FC42F222317
:1014600049F081E08093DF010E94DB269093DE014A
:101470008093DD018091DF018823C1F08091DD013F
:101480009091DE010E94F326069780F0EF2DFD2F4C
:10149000D8014C2F50E0CD01801B910B841795078C
:1014A0001CF48D918193F7CF1092DF01DF91CF91E2
:1014B0001F910F91FF9008956E9876988CB186FBDE
:1014C000882780F908958091E00181110DC00E9464
:1014D000FF2E811102C082E001C081E08093E00113
:1014E000823011F40E94FA2E81E09091E001913057
:1014F00009F080E008950E945C0A809311018091B8
:10150000110164E2882311F080E001C084E20E94AE
:101510002B0B0E94630A81110C942A1708950E94D4
:10152000630A811102C00C9430170895EF92FF9264
:101530000F931F93CF93DF938B01682F11110AC074
:10154000442329F0E82FF0E0EC5CFB4F6491762F08
:10155000862F75C0212F30E0E82FF0E0442321F0E2
:10156000EC5CFB4FE491F0E046E0049FC0011124E5
:10157000CFEFD0E0BE010E940C2F4BEA4603C00122
:10158000479F900D1124800F911D800F911D982F62
:10159000990F890FAE01421B530B4E9FD0014F9FF5
:1015A000B00D5E9FB00D11249B2F189FA001112438
:1015B000452F55278E01041B150B0E9FA0010F9F71
:1015C000500D1E9F500D11247E01E81AF108E29E75
:1015D0008001E39E100DF29E100D1124212F332760
:1015E000C21BD30BCE9F9001CF9F300DDE9F300DDD
:1015F000112462307105A9F048F46115710569F094
:1016000061307105C9F48B2F752F0DC064307105E1
:1016100081F058F06630710579F47E2F8B2F932F6F
:101620000DC0832F7B2F9E2F09C08E2F7B2F952FD0
:1016300005C08E2F732F02C07E2F852F692FDF915B
:10164000CF911F910F91FF90EF90089541E00E947C
:10165000960A08950895E2E1F1E080836183089598
:101660000E94260B0895CF93DF93762FE901682F10
:10167000842F0E94300B798368838A83DF91CF9116
:101680000895413808F040E80C94330B8091FC0237
:10169000282F269530E02115310519F481708260DC
:1016A00005C02231310524F0817082628093FC02F2
:1016B0008091FF02813818F080E88093FF0208953E
:1016C00088E090E00C945F2FCF92DF92EF92FF9230
:1016D0006B017C010E94460BB701A60188E090E0F7
:1016E000FF90EF90DF90CF900C947D2F6091FC02E3
:1016F0007091FD028091FE029091FF020C94640BA8
:10170000ECEFF2E081E1808311828FEF828380E849
:1017100083831482AFEEB1E012968C9112978360AE
:1017200012968C9360817181828193810C94640BF9
:101730008091FC0280FF02C08695089580E00895A4
:1017400090910003933018F49F5F909300038823D7
:1017500051F06091FC027091FD028091FE02909127
:10176000FF020C94640B089581E00C94A00B9091FF
:101770000003992319F0915090930003882351F0AE
:101780006091FC027091FD028091FE029091FF0237
:101790000C94640B089581E00C94B70B80910003C6
:1017A000089580930003662351F06091FC027091CC
:1017B000FD028091FE029091FF020C94640B08954B
:1017C00060E00C94D10B8091FD0208958091FE029F
:1017D00008958091FF02089521E030E001C0220FBA
:1017E0008A95EAF78091F201282381E009F480E0EC
:1017F000089570E00C94F7108F929F92AF92BF9271
:10180000CF92DF92EF92FF920F931F93CF93DF93CC
:10181000CDB7DEB7C85DD1090FB6F894DEBF0FBEF5
:10182000CDBF909013018091FC02982F917080FFA2
:1018300008C0A090E401B090E501A114B104A9F49E
:1018400023C08091140120911501821790F7E82F91
:10185000F0E0AF01440F551FE40FF51FEF5FFC4FA1
:101860001182108212828F5FF0CF992369F0812C50
:10187000882D0E94EC0B882309F444C0F501C59023
:10188000D490C114D10469F4ECEEF3E0AE014F5FE3
:101890005F4FBE0167527F4FCA013CC0B5E0CB0E1F
:1018A000D11C45E050E0B601CE0101960E94412FC7
:1018B00009810F3F39F110E08A819801280F311D0D
:1018C000C9012934310514F088E490E07C01EE0C64
:1018D000FF1C8E0D9F1DDC01AF5FBC4F7D01C80159
:1018E000880F991F080F191F0F5F1C4F0E151F053A
:1018F000A8F698014D816C818B810E94410B0D5F90
:101900001F4FF4CF22E0A20EB11C839438E0831263
:10191000AFCFBACF249130E0D901AA0FBB1F2A0F55
:101920003B1FD901AF5FBC4FCD90DD90EC90DA0149
:10193000CD92DD92ED92AD0131966A177B0751F79A
:1019400020911201692DB3E02B9F800D911D112470
:101950000E94F90BC852DF4F0FB6F894DEBF0FBEDE
:10196000CDBFDF91CF911F910F91FF90EF90DF904E
:10197000CF90BF90AF909F908F9008959091FC0270
:1019800090FF16C09091140120911501921770F4E8
:10199000E92FF0E0DF01AA0FBB1FEA0FFB1FEF5F8B
:1019A000FC4F8183608342839F5FF0CF0C94FC0BDC
:1019B0000895AF92BF92CF92DF92EF92FF920F9372
:1019C0001F93CF93DF9300D01F92CDB7DEB7182FB0
:1019D000F62E042FE22E8091FC0280FF77C0E82FC4
:1019E000E695AE2FB0E0AA58BE4F9C919093EF01C0
:1019F0008E7F823061F49E012F5F3F4F812F0E94C6
:101A0000410B4B8169818A810E94BE0C3CC092309F
:101A100019F41091FD0237C09830A9F5E8508E2FC7
:101A20008170D82EE695F0E0E951FC4FA590B49076
:101A3000C12CBB2460911601C61618F52C2D30E080
:101A4000A29EC001A39E900DB29E900D112470E045
:101A50000E940C2F812FD11002C0860F01C0861B5F
:101A600090911401290F311DA901440F551F240F16
:101A7000351F2F5F3C4F402F6F2D0E94410BC394A9
:101A8000D9CF0E94FC0B8091FD02181308C08091F1
:101A9000FE02F81204C08091FF02081729F080911D
:101AA000F10182608093F1011093FD02F092FE0239
:101AB0000093FF02EE2051F06091FC027091FD0254
:101AC0008091FE029091FF020E94640B0F900F9094
:101AD0000F90DF91CF911F910F91FF90EF90DF90CA
:101AE000CF90BF90AF900895ECEFF2E09181282F56
:101AF0004381628188E0890F0C94D90C81E00C94B9
:101B0000740DECEFF2E09181282F4381628188EF20
:101B1000890F0C94D90C81E00C94810DECEFF2E06C
:101B2000628121E1620F08F46FEF282F43818181E8
:101B30000C94D90C81E00C948E0DECEFF2E06281F4
:101B400021E1621B08F460E0282F438181810C941D
:101B5000D90C81E00C949D0DECEFF2E0438121E182
:101B6000420F08F44FEF282F628181810C94D90C29
:101B700081E00C94AC0DECEFF2E0438121E1421BDB
:101B800008F440E0282F628181810C94D90C81E017
:101B90000C94BB0D20E00C94D90CFF920F931F9373
:101BA000CF93DF93EC01F12C0FEF10E06091160161
:101BB000F616F0F4809114012F2D30E0280F311D1E
:101BC000C901880F991F280F391F2F5F3C4F70E004
:101BD000C8010E94202F962F8C814091FF026091B6
:101BE000FE02F99E800D11240E94410BF394DECF7A
:101BF0000E94FC0B9A818C8190FF02C08F5F01C014
:101C000081508C83DF91CF911F910F91FF900895A8
:101C10008091F10108951092F101089525E0ECEF13
:101C2000F2E0DC0101900D922A95E1F74091EF017D
:101C30005091F0016091F1017091F201FC01458336
:101C400056836783708708956091FC02669570E003
:101C50004BE050E087E191E00E944A2F892B19F474
:101C600081E08093F0010E9469279093E7018093BF
:101C7000E6018091F10184608093F1010895EFEE17
:101C8000F1E0118282818460828308959091FC0248
:101C900090FF3AC09170811102C0926006C08231FB
:101CA00010F0926202C0880F982B9093FC028091F2
:101CB000F10181608093F101662351F06091FC0293
:101CC0007091FD028091FE029091FF020E94640BD0
:101CD0006091FC02669570E04BE050E087E191E096
:101CE0000E944A2F892B19F00E943F0E02C00E94C9
:101CF000240E81E08093E9014091FF026091FE0291
:101D00008091FD020C94CA0D0895682F9091FC02F9
:101D1000969581E0890F823108F081E00C94460E9F
:101D200081E00C94850E682F9091FC0296958FEFC0
:101D3000890F09F481E10C94460E81E00C94930E16
:101D400061E00C94460EECEFF2E0808181608083CC
:101D500086950C94A00E60E00C94460E0E94600BD9
:101D60006093FC027093FD028093FE029093FF0249
:101D70008091F10183608093F1010E94460B809174
:101D8000FC0280FF03C086950C94AB0E0895ECEF27
:101D9000F2E080818160808386950C94AB0E109276
:101DA000ED018091EC0181110E94C70E0C94240E6C
:101DB00021E030E0A90102C0440F551F8A95E2F7E7
:101DC000CA012091F201662311F0822B02C0809596
:101DD00082238093F2018091F10180618093F1016F
:101DE0008091F001811105C08091FC0286950C94D0
:101DF000AB0E0895ECEFF2E080818E7F80836081EE
:101E00007181828193810E94640B0E943F0EEFEEEC
:101E1000F1E08281816082832FEF80E792E02150A0
:101E200080409040E1F700C000000C94FC0B8091D2
:101E3000FC0280FD0C94FA0E0C94A30EECEFF2E081
:101E400080818E7F80830E943F0EEFEEF1E08281E1
:101E5000816082832FEF80E792E0215080409040A4
:101E6000E1F700C000000C94FC0B8091FC0280FDA7
:101E70000C941E0F0C94C70E0E943F0E8091ED0132
:101E800081110AC081E08093ED018091FC02817094
:101E90008093EC010C941E0F08951F93CF93DF9352
:101EA000EC01162F8F8184FF03C098859093F20177
:101EB00080FF10C0888180FF0BC08091FC02816090
:101EC0008093FC028881612F86950E94460E02C095
:101ED0000E941E0F8F8181FF06C0212F4B816A81D6
:101EE00089810E94D90C8F8182FF08C08E8188234E
:101EF00019F00E94240E02C00E943F0E8F8183FFC2
:101F000003C081E08093E901DF91CF911F91089593
:101F10008091EE01811133C00E94E324811104C03D
:101F20000E948B250E94800B0E94600B6093FC0234
:101F30007093FD028093FE029093FF028091F10165
:101F400083608093F1016E7F61F40E94800B0E9498
:101F5000600B6093FC027093FD028093FE029093ED
:101F6000FF020E94460B0E943F0E8091FC0280FF00
:101F700003C086950E94AB0E81E08093EE01089528
:101F8000EF92FF920F931F93CF93DF938091F00115
:101F9000882309F467C08091EF01E091FC02E69587
:101FA000E81BE093E801823051F4E695F0E0EC5153
:101FB000FC4FE491CE2FD0E00DEC1DE004C0C0ED4D
:101FC000D7E00AE21BE08091E901882361F01092DA
:101FD000E9010E9469279093E7018093E60110923E
:101FE000EB011092EA010E946927E091E601F0916D
:101FF000E7019C012E1B3F0B2F3F3F4798F5209197
:10200000E3012223B1F01092E3012091E10130912C
:10201000E201821B930B8F3F9F4758F4205D3A48A3
:102020003093E2012093E1018091F1018860809377
:10203000F101E090EA01F090EB01CE0FDF1FD093A9
:10204000E701C093E60186EE91E0F80109958091E1
:10205000EA019091EB01892B29F4EF2819F081E036
:102060008093E301DF91CF911F910F91FF90EF904B
:102070000895882311F0FA0101C0FB010994CF9360
:10208000DF93C82FD62F0E94980B8C1740F00E9428
:10209000980B8D1720F4DF91CF910C94900E8C2F1C
:1020A000DF91CF910C94A00E1F93CF93DF93FB0190
:1020B0001281111197C0EC010E941C248272CB3C4A
:1020C000FCE5DF0709F47EC060F5C63CECE5DE0701
:1020D00009F45FC0A8F4C33C9CE5D90709F448C0E3
:1020E00028F4C23CDC4509F440C03DC0C43C9CE53A
:1020F000D90709F442C0C53CDC4509F445C033C0EA
:10210000C83CFCE5DF0709F44EC008F447C0C93CF1
:10211000ECE5DE0709F44CC0CA3CDC4509F44DC0CF
:1021200022C0C03D9CE5D90709F455C060F4CD3C00
:10213000FCE5DF0709F44BC008F054C044EB5BE05A
:102140006BEC7BE01EC0C43DECE5DE0709F446C045
:1021500008F448C0C53D8CE5D80709F443C0CD3527
:10216000DD4509F43FC011E03DC00E94170F3AC0A1
:102170004DE95EE060E97EE004C040E95EE06DE9C3
:102180007EE00E9439102EC04BE85DE06EE77DE0F6
:10219000F8CF4EE75DE06BE87DE0F3CF49EA5DE024
:1021A0006AE97DE0EECF4AE95DE069EA7DE0E9CFEA
:1021B00047EC5DE068EB7DE0E4CF48EB5DE067EC89
:1021C0007DE0DFCF4BEC5BE064EB7BE0DACF81E0DE
:1021D0000E94A00E07C067E082E002C061E188E0D3
:1021E0000E943F10812FDF91CF911F910895559A42
:1021F0002BB12F7D3BB130624FB7F894FC01CB017E
:10220000880F991F680F791F6E0F7F1FE617F7075A
:1022100089F0819198E03BB9000000C087FF2BB99D
:10222000880F000000C000C000C02BB900C09A9504
:1022300091F7ECCF4FBF8FE594E00197F1F700C025
:10224000000008950C94F6038198899A84988C9ADA
:102250008FB1869581707C9902C090E001C092E0B8
:10226000892B8093F8019091110181E09827909338
:10227000F401891B8093F3010895CF93E091F80155
:10228000EE0FEE0FE093F8014FB141FB882780F984
:1022900090E04FB144FB222720F930E044FF02C018
:1022A00022E030E0822B932B8E2B8093F801C0919B
:1022B000F4018F70E82FF0E0E857FE4F9081809195
:1022C000F701890F8093F70184306CF0EC2FF0E078
:1022D000EB50FE4F80818F5F808360E08C2F0E94E7
:1022E000221121E001C020E08091F7018D3F64F4CC
:1022F000EC2FF0E0EB50FE4F80818150808361E055
:102300008C2F0E94221121E08091F701082E000CF1
:10231000990B64E070E00E94202F8093F701822FD8
:10232000CF910895E091F401F0E0EB50FE4F208151
:10233000FC0120830895FF920F931F93CF93DF93A7
:10234000D091F3010D2F10E00B501E4FFC01C08106
:10235000F8018081C81BFC2E80E01F145CF4FA9405
:10236000F80180818F5F808360E08D2F0E942211B1
:1023700081E0F3CF9C2FC7FD90E0C91BCC2359F01F
:10238000CF5FF80180818150808361E08D2F0E94B2
:10239000221181E0F3CF882339F0DF91CF911F9193
:1023A0000F91FF900C94D519DF91CF911F910F9150
:1023B000FF90089583E290E00E94572F813281F4CC
:1023C00084E290E00E94572F803151F485E290E042
:1023D0000E94572F91E0813109F090E0892F01C0D0
:1023E00080E081700895CF93C82F811102C06FEFF4
:1023F00001C061E283E290E00E946B2FC11102C034
:102400006FEF01C060E184E290E00E946B2FC11188
:1024100002C06FEF01C061E185E290E0CF910C94C2
:102420006B2F80E00E94F3110C94DD24089586E266
:1024300090E00E94572F682F70E080E090E00895B0
:1024400086E290E00C946B2F0E9416120E94DA1123
:1024500081110CC060E070E0CB010E9420120E944C
:10246000C2130E94A11481E00C94F3110895CF933C
:10247000FB01C281CC23E9F09C0122513F45203170
:10248000310520F482510E94B1140CC08031FFE567
:102490009F0751F481E00E94832243E062E081E0E3
:1024A0000E94DB04C0E018C081319F45A9F482E09E
:1024B000F2CF8031EFE59E0711F481E004C0813155
:1024C0009F4549F482E00E94A42243E062E081E05B
:1024D0000E94DB0401C0C1E08C2FCF9108952FEF43
:1024E000FC0120830895CF93DF93EC01888181382C
:1024F00089F028F48038A1F40E94E90B10C08238DA
:1025000061F0833869F40E94E30B89830E94E60B33
:102510008A8306C00E94980B02C00E94CE0B89835A
:10252000DF91CF910895CF93DF93EC0188818138BB
:10253000B1F058F4803851F5D9810E94E60BC82FCC
:102540000E94E30B4D2F6C2F1DC08238B1F08338F1
:10255000E9F40E94E90B482F6A81898113C08981BF
:102560000E94AB0E8981811104C0DF91CF910C9440
:102570001E0FDF91CF910C94C70E8981DF91CF910F
:102580000C94E00BDF91CF910C94CA0DDF91CF91A9
:102590000895EF92FF920F931F93CF93DF93EC0177
:1025A000062F0196E8814E2F50E0FA013197E33172
:1025B000F10508F09AC0EA5AFF4F0C94342F1982A3
:1025C00089E056C08981823039F0833061F08130F2
:1025D00029F50E94E72602C00E9417129A838B8376
:1025E0007C836D8384C07E0182E0E80EF11C10E0E4
:1025F000812F0E947508F70181937F011F5F1A30B8
:10260000B9F775C08981823049F46A817B818C81F8
:102610009D810E943A2F0E94201269C0602FCE0136
:102620000E946F1264C04B816A8189810E94941359
:102630009C838D835CC02C813D81322723273227E8
:102640004B816A8189810E94AD1351C00E94C213DF
:102650004EC00E9493124BC00E94731248C00E9449
:10266000760B45C00E94541424C00E9456149983CE
:102670008A833DC06B8170E089819A81AE014C5F95
:102680005F4F9827892798270E94591430C06B8183
:1026900070E089819A81AE014C5F5F4F982789274E
:1026A00098270E947E1423C00E94A11420C00E947B
:1026B000811389831CC06B8170E089819A81AE018E
:1026C0004C5F5F4F9827892798270E9401140FC0FD
:1026D0006B8170E089819A81AE014C5F5F4F9827D2
:1026E000892798270E94251402C08FEF8883602FC6
:1026F000CE01DF91CF911F910F91FF90EF900C943D
:102700001A2884E0089550E0440F551F2CE0629F82
:10271000400D511D11249A0168E7869F200D311D3F
:102720001124C901879608950F931F93CF93DF93C8
:102730000E9483138C010E94572FC82FD0E0DC2FFA
:10274000CC27C80101960E94572F9E01282BC90152
:10275000DF91CF911F910F9108950F931F93CF9306
:10276000DF93122F032F0E948313EC01602F0E942E
:102770006B2F612FCE010196DF91CF911F910F91A9
:102780000C946B2FAF92BF92CF92DF92EF92FF9299
:102790000F931F93CF93DF93A12CE12CF12CB12C3D
:1027A00000E010E0C0E0D0E06701C00ED11EFE01E5
:1027B000EE0FFF1FEC0DFD1DEC5AFE4F25913491DD
:1027C0004C2F6B2D8A2D0E94AD132196C630D1055A
:1027D00071F7045F1F4FB3948AE0B812E3CF88E724
:1027E000E80EF11CA39484E0A812D9CFDF91CF9119
:1027F0001F910F91FF90EF90DF90CF90BF90AF901F
:102800000895EF92FF920F931F93CF93DF93EA0106
:102810007A01E60EF71E8C01C8018796CE15DF05FA
:1028200069F0003E21E0120720F40E94572F8883B0
:1028300001C0188221960F5F1F4FEECFDF91CF911D
:102840001F910F91FF90EF900895EF92FF920F93D9
:102850001F93CF93DF93EA017A01E60EF71E8C01F6
:10286000C8018796CE15DF0559F0003E21E012071A
:1028700018F468810E946B2F21960F5F1F4FF0CFD5
:10288000DF91CF911F910F91FF90EF900895462F08
:10289000843038F47A3028F4663018F4672F0C94BA
:1028A000941380E090E0089580E1089589EF91E02D
:1028B0000895EF92FF920F931F93CF93DF93EA0156
:1028C0007A01E60EF71E8C01C801895F9D4FCE1577
:1028D000DF0569F0093F21E0120720F40E94572F1D
:1028E000888301C0188221960F5F1F4FEDCFDF91C3
:1028F000CF911F910F91FF90EF900895EF92FF926B
:102900000F931F93CF93DF93EA017A01E60EF71E30
:102910008C01C801895F9D4FCE15DF0559F0093F35
:1029200021E0120718F468810E946B2F21960F5F37
:102930001F4FEFCFDF91CF911F910F91FF90EF903D
:102940000895CF93DF93C7E0D2E060E0CE010E940C
:102950006B2F2196C11584E0D807B9F7DF91CF918D
:102960000895DF92EF92FF920F931F93CF93DF931F
:1029700000D000D0CDB7DEB7F82E8FE08F15E8F18C
:102980008FEF93E00E94572F811137C007E012E0CC
:10299000FF2069F0011584E0180779F1C8010E9451
:1029A000572F811101C0FA940F5F1F4FF1CF198289
:1029B0001A821B821C82DD24D39478018FEFE81ADF
:1029C000F80AC8010E94572F89831A828823A9F028
:1029D0009FEF980F933058F48A83D9820E5F1F4F70
:1029E000C7010E94572F8B83882339F07801CE01CD
:1029F00001960E9432068701E0CF0F900F900F9052
:102A00000F90DF91CF911F910F91FF90EF90DF908A
:102A100008950F931F93CF93DF93C42FD22FFC0100
:102A200082818823C9F04093FB010E94DB269093AA
:102A3000FA018093F90180E28C0F883008F057C0CA
:102A4000C77081E001C0880FCA95EAF7DF91CF9186
:102A50001F910F910C949A1B8091FB01481330C079
:102A60008091F9019091FA010E94F326883C91052A
:102A700038F510E21D0FCD17B9F080E28C0F8830C9
:102A800040F4C77081E001C0880FCA95EAF70E9440
:102A9000A11B183028F581E09D2F977001C0880F89
:102AA0009A95EAF70E949A1B802F0E94911B18307A
:102AB000F0F4D77081E001C0880FDA95EAF70AC018
:102AC00080E28C0F883098F4C77081E001C0880FD5
:102AD000CA95EAF7DF91CF911F910F910C94A11B3A
:102AE000802FDF91CF911F910F910C94911BDF915B
:102AF000CF911F910F9108950F939C01CB01233F1C
:102B00004CE5340731F188F4283DFCE53F07D9F066
:102B1000293D4CE5340779F1273D3C45A9F506E20E
:102B200021EE41EE67ED7CE52BC0253FFCE53F073C
:102B3000E1F0A8F0263F3C4539F507E225EE46EEE8
:102B400066EF7CE51DC007E225EE45EE68ED7CE50D
:102B500017C006E221EE40EE63EF7CE511C007E20C
:102B600025EE44EE64EF7CE50BC006E221EE42EE7A
:102B700065EF7CE505C008E221E045EE69ED7CE506
:102B80000E94091580E008C0FC018281882319F0A9
:102B90001092FB0101C081E00F910895CF93DF9364
:102BA000EC01FB018281882309F41FC1C230FCE5DE
:102BB000DF0708F41BC1C6319CE5D90738F09E0138
:102BC0002A5F3C452930310508F010C10E94F624E7
:102BD0009093E5028093E402C031ECE5DE0709F44E
:102BE000C3C008F041C0C8308CE5D80709F49AC0CA
:102BF000F0F4C430ECE5DE0709F487C068F4C230B5
:102C00008CE5D80709F477C0C330DC4509F0E3C090
:102C10008091E402826076C0C630ECE5DE0709F4FC
:102C20006EC008F07BC08091E40288606BC0CC303D
:102C30008CE5D80709F485C068F4CA30ECE5DE07F6
:102C400009F474C008F079C00E94181E8091E40253
:102C5000806858C0CE308CE5D80709F476C008F0FB
:102C60007FC08091E4028BC0CB3FECE5DE0709F426
:102C70004FC018F5C3318CE5D80709F47DC078F44E
:102C8000C131ECE5DE0709F473C0C231DC4509F05F
:102C9000A2C00E94181E8091E4028F7733C0C53114
:102CA0008CE5D80709F472C008F486C0CA3FDC4539
:102CB00009F091C08091E5023EC0CF3FFCE5DF07FF
:102CC00009F45FC058F4CD3F9CE5D90709F444C02E
:102CD00008F43FC08091E50282602DC0C130FDE55F
:102CE000DF0709F475C008F45DC0C230DD4509F0A6
:102CF00072C080E06EC08091E402816003C0809168
:102D0000E40280618093E40266C08091E40211C015
:102D10008091E50282608093E5025DC08091E402CB
:102D20008062F0CF8091E4028064ECCF8091E40275
:102D300088608460E7CF8160EECF8091E4028E7F6F
:102D4000E1CF8091E4028D7FDDCF8091E402877F27
:102D5000D9CF8091E50218C08091E5028D7FDBCF4D
:102D60008091E4028F7ECECF8091E4028F7DCACF26
:102D70008091E4028F7BC6CF8091E402877F8B7FB6
:102D8000C1CF8091E5028D7F8E7FC5CF8091E40217
:102D900082FB222720F991E0922790FB82F990FB99
:102DA00083F9B0CF8091E502982F909591708E7F36
:102DB000892B90FB81F9AFCF0E94181E8091E4020D
:102DC00087FB222720F991E0922790FB87F99ACF81
:102DD00081E00E948D258091E4029091E5020E949D
:102DE00007250E94181E80E001C081E0DF91CF918D
:102DF0000895CF93DF9386319C4541F5EB010E9406
:102E00001C24982F8A81209132013091330188232C
:102E100079F09A7A81E009F480E08093FC019111C5
:102E200002C069E201C065E3C9010E9428260AC008
:102E30008091FC01811102C069E201C065E3C90112
:102E40000E9433260E946E2480E001C081E0DF9161
:102E5000CF91089562E070E082E291E00C94061850
:102E600062E070E082E291E00C940F180E94080E7C
:102E7000882361F089E092E00E940E0E81E090E0EC
:102E80000E94E818892B11F40C940B0E0895809180
:102E90000802883039F460E089E092E00E944D0F2A
:102EA000109208020895CF93DF93D62FC72F0E9468
:102EB000361780E090E00E94E818892B11F5ED2F7D
:102EC000FC2F80E090E0DC01AE5FBD4F2C912193A0
:102ED000019685309105B9F787E092E00E949B1139
:102EE0000E944E27DC01CB010296A11DB11D8093EB
:102EF000FE019093FF01A0930002B093010281E0D4
:102F000001C080E0DF91CF910895CF93DF93D62F5A
:102F1000C72F0E9447176091FE017091FF018091B9
:102F20000002909101020E943127ED2FFC2F80E0DA
:102F300090E02191DC01AE5FBD4F2C93019685306E
:102F40009105B9F787E092E0DF91CF910C9492114F
:102F50008EE1489B02C08150E1F7489BFECF089567
:102F6000589880E28A95F1F7589A0895FC012AE072
:102F70002A95F1F790E020E080E031E0261779F023
:102F800040E14A95F1F7880F489B02C08160932782
:102F900000C0000040E14A95F1F72F5FEFCF20E13C
:102FA0002A95F1F729B100C0000030E13A95F1F718
:102FB000217092272081920F90830895EF92FF92C3
:102FC0000F931F93CF93DF931F92CDB7DEB7198274
:102FD0008C017C01E60EF11C0E151F0559F00E94B4
:102FE000A81768E0CE0101960E94B617F8018193F8
:102FF0008F01F2CF81E09981911180E00F90DF91F4
:10300000CF911F910F91FF90EF900895909314022C
:103010008093130260931202509A589A08959093E5
:10302000140280931302609312025098589AE89AFF
:10303000E9E6F0E080818C7F80830895615091E023
:1030400001C0990F6A95EAF720E031E0992361F019
:10305000492F482319F0589A232701C0589840E275
:103060004A95F1F79695F2CF222311F0589A01C0B4
:10307000589880E28A95F1F758980895FF920F9337
:103080001F93CF93DF93EC018C01060F111DC01726
:10309000D10741F0F9900E94B01768E08F2D0E948F
:1030A0001E18F5CFDF91CF911F910F91FF900895DA
:1030B0001F920F920FB60F9211240F931F932F930D
:1030C0003F934F935F936F937F938F939F93AF93B0
:1030D000BF93EF93FF93CF93DF931F92CDB7DEB7EC
:1030E00019820E94A81767E0CE0101960E94B617C8
:1030F000382F369536953695932F96959570232FC4
:103100002570920F292F2370969596958770920FB0
:10311000891348C08981811145C0809112028317AB
:1031200008F440C080E18A95F1F7589A509AA2E0DD
:10313000AA95F1F700C00091130210911402B8E0B3
:103140003B9F000D111D11245898F80165816623DD
:1031500021F0868197810E943E180E94B017F0E10D
:10316000FA95F1F758985098589A80E18A95F1F7B6
:10317000D80112966C911297662369F013968D917F
:103180009C9114970E94DE17D801ED91FC9181115A
:1031900005C082E004C0D801ED91FC9188E08083F5
:1031A0000E94A8170F90DF91CF91FF91EF91BF91EF
:1031B000AF919F918F917F916F915F914F913F91CF
:1031C0002F911F910F910F900FBE0F901F90189588
:1031D0000F931F93CF93DF932091120230E02817B3
:1031E00039070CF471C09C0193E0220F331F9A95AC
:1031F000E1F7C0911302D0911402C20FD31FF894CB
:10320000509A589845E04A95F1F70000982F969506
:1032100095708570890F982F937086958695890F84
:103220008901082B0E94B01784E08A95F1F700C04D
:1032300067E0802F0E941E1840E14A95F1F75098F0
:10324000589A489902C000C0FCCF87E090E0489BA4
:103250000EC0019751F4509A589AE881F98181E0A3
:103260008083789481E090E031C000C0F0CF6D8120
:10327000662381F08E819F810E94DE1781110AC032
:10328000509A589AE881F98182E08083789482E0AC
:1032900090E01CC00E94A81780E28A95F1F7589828
:1032A000509A40E14A95F1F76A81662321F08B81BB
:1032B0009C810E943E180E94B017E881F98110821B
:1032C000789480E090E002C084E090E0DF91CF91BC
:1032D0001F910F91089590931A02809319020895F7
:1032E000E0911902F0911A02309721F00190F081DB
:1032F000E02D099480E00895E0911902F0911A02FE
:10330000309799F020913E01222359F02091E40258
:1033100027FF07C0DC012C9111962C93119725E013
:103320002C930280F381E02D0994089520911702D7
:10333000309118022817390771F090931802809382
:103340001702E0911902F0911A02309721F00680DD
:10335000F781E02D0994089520911502309116020D
:103360002817390771F09093160280931502E091A7
:103370001902F0911A02309721F00084F185E02DB6
:10338000099408950E94E72660932E0270932F02FD
:10339000809330029093310260932A0270932B0243
:1033A00080932C0290932D0208950E94E72660934B
:1033B0002E0270932F02809330029093310260931B
:1033C0002602709327028093280290932902089581
:1033D00085B7806885BF85B7806885BF08950C94E0
:1033E000630A08950C94F1190C9402040C94F119D9
:1033F0000C94F6190C94F1190E94E8198BED94E2E3
:103400000E9496270E94FA190C94F8190E94F2194A
:103410000C94F1190E94D2260E9428270E94A70826
:103420000E9424120E94880F0E942411E4EEF2E010
:103430008081806880838091E4029091E5020E94FF
:1034400007250C94F4199F92AF92BF92CF92DF920E
:10345000EF92FF920F931F93CF93DF93CDB7DEB719
:103460002A970FB6F894DEBF0FBECDBF0E949A090F
:1034700081110E94C2198CE1A82E82E0B82E00E0D2
:1034800010E0902E802F0E947508D82EF501C19073
:103490005F01C826B1F40F5F1F4F0A30110589F78D
:1034A0008FEF89838A831B820E94DB268160782FBD
:1034B0009D838C8349815A816B818D810E94C61ABC
:1034C0002FC08091C00281FD0E947B08E12CFF2467
:1034D000F3948C2D8F21F1F00E94EF19882399F03D
:1034E000EE829F82DF2081E009F480E088870E94DD
:1034F000DB268160782F9A8789874E815F81688576
:103500008A850E94C61AF801E45EFD4F8081F82684
:10351000F08206C0E394FF0CF6E0EF12DACFBBCFE7
:103520000E94C00F0E943D1181110E94D5190E9476
:10353000701990911B028917B9F00E94701980933D
:103540001B022A960FB6F894DEBF0FBECDBFDF91E7
:10355000CF911F910F91FF90EF90DF90CF90BF9090
:10356000AF909F900C943B062A960FB6F894DEBF5E
:103570000FBECDBFDF91CF911F910F91FF90EF90C4
:10358000DF90CF90BF90AF909F900895DF92EF9221
:10359000FF920F931F93CF93DF93CDB7DEB72B9797
:1035A0000FB6F894DEBF0FBECDBFF42E052F162F39
:1035B000E72ED82E61110E943C24FE01319686E050
:1035C000DF011D928A95E9F77E2D4F2D502F612F37
:1035D0008D2D9E810E94D1202B960FB6F894DEBFD0
:1035E0000FBECDBFDF91CF911F910F91FF90EF9054
:1035F000DF900895FC01808191810E94BC23089591
:10360000CF93882309F448C0C82F8CEF8C0F813AE0
:10361000D0F46C2F80913201909133010E94A82543
:10362000882349F06C2F80913201909133010E94E0
:1036300033260E946E246C2F8091320190913301C9
:103640000E9428260CC080E28C0F883058F4C77086
:1036500081E001C0880FCA95EAF70E941F24CF912C
:103660000C946E24EBE5EC0FE33040F4F0E0EA5309
:10367000FE4F808190E0CF910C949619C85AC731C3
:1036800058F4EC2FF0E0EE0FFF1FE856FE4F80815C
:103690009181CF910C94AC19CF910895882349F171
:1036A000682F8CEF860F813A38F480913201909127
:1036B00033010E9433260CC080E2860F883050F41C
:1036C000677081E001C0880F6A95EAF70E9425249F
:1036D0000C946E248BE5860F833020F480E090E01C
:1036E0000C949619685A673120F480E090E00C94AD
:1036F000AC1908951F93CF93DF93182FEB010E940D
:10370000001B209741F08FE99FE00197F1F700C07F
:1037100000002197F6CF812FDF91CF911F910C945C
:103720004E1B893319F060E070E002C060E570E084
:103730000C947A1B882321F00E941F240C946E2481
:103740000895882321F00E9425240C946E24089566
:10375000CF92DF92EF92FF920F931F93CF93DF935D
:103760007C01062FC72FFC01D281158112951F7095
:103770000E94F423882399F0DD2389F08C2F807F29
:10378000803421F080E2800F883048F082E00E948F
:10379000BE240E94F42391E0D82ED92601C0D12C5A
:1037A000CC2EC2948FE0C8228C2D90E0FC01E7590A
:1037B000FF4F0C94342F8C2F807FCF70882311F013
:1037C000C295C07FDD2399F0CC2309F482C180E249
:1037D000800F883010F0011104C08C2F0E941F242C
:1037E00003C08C2F0E942F240E946E2472C1802F50
:1037F0000E944E1BCC2309F491C180E2800F8830D7
:1038000010F0011104C08C2F0E94252403C08C2FBE
:103810000E9435240E946E2481C18C2F807FCF703E
:10382000803211F0C295C07F002319F00130C9F039
:1038300022C0DD2371F0112341F0113031F40E94D8
:103840004F248C2B0E94572469C10E944F248C2B3B
:103850001DC0112319F0113009F460C10E946424C5
:1038600025C0DD2321F0163008F058C10EC01530F8
:1038700008F054C11BC0DD2361F0112331F0F701C2
:10388000858180FF26C18F7085838C2F0E949A1BB3
:1038900045C1112359F0093309F02CC1FFEF27EE80
:1038A00083E0F15020408040E1F722C18C2F0E943C
:1038B000A11B34C18C2F86958695837019F08130B9
:1038C00061F02CC1DD2321F0802F9C2F937002C06A
:1038D00080E090E00E94961929C1DD2321F0802F1D
:1038E0009C2F937002C080E090E00E94AC191EC132
:1038F0008C2F837009F045C0D11114C1402F42951F
:1039000046954770440F440F602F6F70862F90E0EC
:10391000A0E0B0E0042E04C0880F991FAA1FBB1FAF
:103920000A94D2F704FF10C00FE010E020E030E06E
:1039300004C0000F111F221F331F4A95D2F70095B4
:1039400010952095309503C000E010E09801C695D1
:10395000C695C370BC01CD01602B712B822B932BBC
:10396000C23049F058F4C13019F00E942222DAC066
:103970000E941022D7C00E943422D4C00E940E227E
:10398000D1C0DD2319F08C2F817001C0869588236A
:1039900009F4C8C0402F429546954770440F440F24
:1039A000602F6F70862F90E0A0E0B0E0042E04C07E
:1039B000880F991FAA1FBB1F0A94D2F704FF10C0DB
:1039C0000FE010E020E030E004C0000F111F221FC4
:1039D000331F4A95D2F7009510952095309503C076
:1039E00000E010E09801C695C695C370BC01CD01FA
:1039F000602B712B822B932BC23049F058F4C130CD
:103A000019F00E94FC228EC00E94EA228BC00E9404
:103A10000E2388C00E94482285C0CF70DD2339F074
:103A20008C2F0E948322802F0E949A1B7BC0802FA4
:103A30000E94A11B8C2F0E94A42274C0023F01F19E
:103A400028F4003F41F0013FA1F03FC0033FF9F0EF
:103A5000043F39F13AC0DD2341F0153008F05EC073
:103A60008C2F8F710E94C92259C0163008F056C0A1
:103A7000F7CFDD2339F08C2F8F710E9483224EC047
:103A8000DD23C9F38C2F8F710E94A42247C0DD2350
:103A900029F08C2F8F710E946E2240C00E94542208
:103AA0003DC0DD2349F0CF718C2F0E94832263E05B
:103AB0008C2F0E94A32432C081E00E94BE241230C9
:103AC00068F182E00E94BE2429C0DD2331F0112379
:103AD00091F2802F0E94001B21C0112399F209331B
:103AE00049F49FEFE7EEF3E09150E040F040E1F75A
:103AF00000C00000802F0E944E1B10C04C2F4F7042
:103B0000602FC7010E9444060E947F210FC04C2FE6
:103B10004F70602FC7010E94470608C088EF8C0DC8
:103B2000843020F40E9470190E943B06DD20C9F009
:103B30000E94F02380FD15C0F70112820E94EA2343
:103B40000E948322C7010E94D21D0E94EA23DF91B6
:103B5000CF911F910F91FF90EF90DF90CF900C9439
:103B6000A422DF91CF911F910F91FF90EF90DF90F2
:103B7000CF9008950F931F93CF93DF93EC0168814B
:103B800079818A810E94C7238C010E9420230E9490
:103B9000FC21B801CE010E94A81BDF91CF911F919B
:103BA0000F910895CF93DF93EC01988189812B8148
:103BB0003C81232B31F08F3F31F481E09F3F19F49A
:103BC00003C081E001C080E080FD19C0CE010E94E9
:103BD000030581110CC00E94F423882381F08A819F
:103BE000882369F082E0DF91CF910C94BE24CE014E
:103BF0000E94BA1DCE01DF91CF910C947C04DF911D
:103C0000CF91089580E090E00E94961980E090E0C6
:103C10000E94AC190E943C240E944C240C946E24F7
:103C200080913201909133010E943E260C94021E35
:103C30000E942C240C94101EE92FE295EF704E2F59
:103C400050E0FA013297EE30F105B0F4E758FF4F3B
:103C50000C94342F803F91F018F4883E68F40EC025
:103C6000843F51F40BC0883E48F0813F29F406C0E0
:103C700093FB882780F9089580E0089581E00895F6
:103C80000E94BC230E941C1E0895CF93DF9300D096
:103C900000D01F92CDB7DEB70F900F900F900F900E
:103CA0000F90DF91CF910895CF93DF9300D000D094
:103CB00000D0CDB7DEB726960FB6F894DEBF0FBEA4
:103CC000CDBFDF91CF9108951F93CF93DF93C09124
:103CD000330216E080913402C81799F0D0E01C9F9F
:103CE000F0011D9FF00D1124EB5CFD4F40815181CF
:103CF00062817381848195810E94541E2196C770D0
:103D0000E9CFDF91CF911F910895409165025091C5
:103D100066026091670270916802809169029091D9
:103D20006A020C94541E0F931F93CF93DF938091DC
:103D30006A0282958F7009F05DC0809167028823C6
:103D400009F458C0809133021091340260916502E9
:103D500070916602C0916802D091690291E06F3F54
:103D600009F090E0292F06E0811709F443C020975D
:103D700021F07F3F21F030E003C031E001C0322F5D
:103D800090E030FD34C0089FF001099FF00D112430
:103D9000DF01AB5CBD4F11963C911197371327C0E3
:103DA0003C91361324C012963C91129731111FC0DA
:103DB00013964D915C9114974C1B5D0B483C51053B
:103DC000B0F480916A028F70806180936A02E65C31
:103DD000FD4F80818F708061808385E692E00E9434
:103DE000D21DDF91CF911F910F910C94641E01960B
:103DF0008770BACFDF91CF911F910F9108959F9255
:103E0000AF92BF92CF92DF92EF92FF920F931F93E8
:103E1000CF93DF93CDB7DEB761970FB6F894DEBFCF
:103E20000FBECDBF8C0185E0F801DE011D9601902B
:103E30000D928A95E1F7F80140815181E2809091DD
:103E40006502609166022091680230916902211535
:103E5000310531F06F3F31F481E09F3F19F403C029
:103E600081E001C080E0F82FF1709F2E80FD46C1F7
:103E7000F801A380B48085E6C82E82E0D82EF090A9
:103E80006702F501E21BF30BFF2009F4DFC080910C
:103E90006A02E83CF10508F09BC0282F207F09F05A
:103EA00052C0561313C0491311C0FE2CE1100EC0AE
:103EB0008F70806180936A020E94851EC6010E94F5
:103EC000D21D80916A02F801858358C1AB2831F078
:103ED0005F3F31F481E04F3F19F403C081E001C03E
:103EE00080E080FD03C081E08E2502C080E090E08C
:103EF000F82FF170FF2E80FF1CC0809133022091BB
:103F0000340236E0821709F417C190E0389FF001BF
:103F1000399FF00D1124EB5CFD4F6181561306C0F3
:103F20006081461303C06281E61203C00196877068
:103F3000E9CFFE2CEE2009F421C180916A02816054
:103F400080936A025AC0561306C0491304C0E11098
:103F500002C0F8019FC04D875E878D859E850E94B7
:103F6000401E882379F1EE2069F120916A02822FA8
:103F700082958F7090E0029774F080916502909125
:103F8000660298878F831986BB86AA862C87CE0106
:103F900007960E94D21D86E0F801A5E6B2E00190E6
:103FA0000D928A95E1F70E94931E0E94851E0DC016
:103FB000561729F14D875E878D859E850E94401E8C
:103FC00081112CC0C8010E94D21DFF24F394D6C0D9
:103FD000282F207F69F77A2DB98AA88A6E2D8989C2
:103FE0000E94451E85E692E00E94D21D86E0F60101
:103FF00011928A95E9F70E94851EF12CBFC04913E2
:10400000D9CFE110D7CFF8018583C8010E94D21D16
:1040100086E0F60111928A95E9F7B0C0EE2091F2A0
:1040200020916A02822F82958F7090E002970CF4A3
:10403000B2CF80916502909166029A8389831B8238
:10404000BD82AC822E83CE010196A3CFE83CF10560
:1040500008F047C0FE2CEE2009F4B4CF561330C050
:1040600049132EC020916A0220FD21C0822F829523
:104070008F70482F50E041155105C9F0F801258394
:104080004F30510541F08F5F982F9295907F822F8E
:104090008F70892B8583C8010E94D21D86E0F801AC
:1040A000A5E6B2E001900D928A95E1F742C086E064
:1040B000F801A5E6B2E001900D928A95E1F75EC0A5
:1040C0004D875E878D859E850E94401E811163CF3E
:1040D00080916A02816080936A02C8010E94D21DA9
:1040E0004DC07A2DB98AA88A6E2D89890E94451EF5
:1040F00086E0F60111928A95E9F71BC0EE2009F4DB
:1041000061CF4D875E878D859E850E94401EF82E6B
:10411000882309F457CF86E0F801A5E6B2E00190C4
:104120000D928A95E1F785E692E00E94FA1A0E94C4
:10413000931E0E94851E22C04D875E878D859E85B9
:104140000E94BC23292F22952F70223028F49F70C3
:1041500039F0811105C00BC0243028F49F7049F458
:10416000805E883020F0C8010E94D21D9F2CF92C5F
:1041700005C0F8019581907F99F7F9CF8F2D619651
:104180000FB6F894DEBF0FBECDBFDF91CF911F9168
:104190000F91FF90EF90DF90CF90BF90AF909F90E6
:1041A00008951F93CF93DF93CDB7DEB72C970FB64B
:1041B000F894DEBF0FBECDBF4F83588769877A87DB
:1041C0008B879C87CE0107960E94FF1E8823D1F023
:1041D0009F8188852A853B85232B31F08F3F31F4E1
:1041E00081E09F3F19F403C081E001C080E080FDC1
:1041F00047C04F81588569857A858B859C850E944B
:10420000541E3EC086E0FE013796DE0111960190F5
:104210000D928A95E1F7FF81E8856A857B856115B6
:10422000710531F0EF3F31F481E0FF3F19F403C035
:1042300081E001C080E080FD23C02091340230E0A5
:10424000C9010196877099274091330250E0841785
:104250009507F1F1F983EA837D836C8396E0929F61
:10426000D001939FB00D1124AB5CBD4FFE01319680
:1042700001900D929A95E1F7809334020E94641E9A
:1042800016E08091330290913402891771F1189FE2
:10429000C00111248B5C9D4F0E94FF1E882329F1D1
:1042A000E09133021E9FF0011124EB5CFD4F408131
:1042B000518162817381848195810E94541E809115
:1042C000330290E001968770992780933302D9CF0B
:1042D0000E94181E1092340210923302E5E6F2E0BA
:1042E00086E0DF011D928A95E9F72C960FB6F894C7
:1042F000DEBF0FBECDBFDF91CF911F910895EF922A
:10430000FF920F931F93CF93DF938C01892B09F4B6
:104310006CC0F12CEE24E394E8012196F80184911D
:10432000843740F4843008F051C0813081F082300D
:1043300019F15BC0853709F444C0A8F19CE7980FD8
:10434000903708F052C08F770E944E1B41C00E5F1D
:104350001F4FFE01849190E2980F983050F48770BF
:10436000FE2D01C0FF0F8A95EAF78F2F0E943F2490
:1043700014C00E94001B2DC00E5F1F4FFE018491D0
:1043800090E2980F983060F48770FE2D01C0FF0F07
:104390008A95EAF78F2F0E9445240E946E2419C047
:1043A0000E944E1B16C00E5F1F4FFE01C491CC230E
:1043B00081F08FE99FE00197F1F700C00000C15044
:1043C000F6CF0E5F1F4FFE01F49003C00E94001B4A
:1043D0008E018F2D882309F49FCFEFE9FFE03197FD
:1043E000F1F700C000008150F5CFDF91CF911F9110
:1043F0000F91FF90EF900895089508950C94FD217A
:104400000C94FE210E940022609397027093980200
:104410008093990290939A020C94021E0C940222AB
:104420000F931F9300919702109198022091990287
:1044300030919A02602B712B822B932B1F910F913D
:104440000C9402220F931F930091970210919802EF
:104450002091990230919A02602371238223932341
:104460001F910F910C9402220F931F9300919702BA
:10447000109198022091990230919A026027712739
:10448000822793271F910F910C9402220C940A0407
:104490000E94462260939302709394028093950247
:1044A000909396020C94021E60E070E0CB010C9495
:1044B0004822611571058105910529F481E04423A5
:1044C00061F080E00895DC01CB0104C0B695A795AA
:1044D000979587954A95D2F7817008950F931F930A
:1044E00041E050E060E070E08A019B0104C0000FF1
:1044F000111F221F331F8A95D2F7C901B8011F91DE
:104500000F910C9448220F931F9341E050E060E01C
:1045100070E004C0440F551F661F771F8A95D2F7BD
:104520008091930290919402A0919502B09196028D
:104530008A019B01082B192B2A2B3B2BC901B8019F
:104540001F910F910C9448220F931F9341E050E06C
:1045500060E070E004C0440F551F661F771F8A9506
:10456000D2F7409550956095709580919302909107
:104570009402A0919502B09196028A019B010823B2
:1045800019232A233B23C901B8011F910F910C94D1
:1045900048220F931F9341E050E060E070E004C0B8
:1045A000440F551F661F771F8A95D2F7809193029B
:1045B00090919402A0919502B09196028A019B017C
:1045C000082719272A273B27C901B8011F910F91F6
:1045D0000C9448220F931F93009193021091940220
:1045E0002091950230919602602B712B822B932B98
:1045F0001F910F910C9448220F931F9300919302E7
:1046000010919402209195023091960260237123BB
:10461000822393231F910F910C9448220F931F9391
:10462000009193021091940220919502309196028C
:1046300060277127822793271F910F910C9448229E
:104640000895292F220F920F990F890FE82FE695D1
:10465000E695E695877051E001C0550F8A95EAF717
:1046600085E0E89FF0011124E559FD4F20E030E09E
:1046700070E04081CB01022E02C0969587950A9486
:10468000E2F78170819584278523842781932F5FAA
:104690003F4F2530310569F70895292F220F920FDA
:1046A000990F890F682F669566956695982F977074
:1046B00085E0689FB001112440E050E080E0FB01FC
:1046C000E40FF51FE559FD4F208130E0092E02C0AF
:1046D000369527950A94E2F721703327042E01C0FE
:1046E000220F0A94EAF7822B4F5F5F4F4530510546
:1046F00031F70895BF92CF92DF92EF92FF920F931E
:104700001F93CF93DF938C01C0909302D0909402BB
:10471000E0909502F0909602809197029091980215
:10472000A0919902B0919A02C82AD92AEA2AFB2AB2
:10473000CFE1D0E0D701C6010C2E04C0B695A795F5
:10474000979587950A94D2F780FD04C0219790F73A
:10475000B12C07C0BC2EB8018C2F0E9450060197C7
:10476000A9F38B2DDF91CF911F910F91FF90EF90C7
:10477000DF90CF90BF900895CF93DF93EC010E941C
:104780007A23BE010E945006DF91CF9108951F93B6
:10479000CF93DF93EB0190913202992321F0CB016B
:1047A0000E94BC2313C0882349F0CB010E947A23C6
:1047B000182F682FCE010E94212304C0CB010E9434
:1047C0004D23182FBE01812F0E945006DF91CF91FB
:1047D0001F91089580919B028595859585950895F3
:1047E00080919B028770089590919B02977081E061
:1047F00009F480E008959091E50292FB222720F9C8
:10480000281751F080FB92F99093E5028091E40221
:104810009091E5020C94072508958091E50282FBB2
:10482000882780F991E089270C94FB2381E00C9480
:10483000FB2380E00C94FB238091BF0208959091AC
:10484000BF02892B8093BF02089580959091BF028B
:1048500089238093BF0208951092BF02089590911A
:10486000BE02892B8093BE02089580959091BE026E
:1048700089238093BE0208951092BE0208959091FC
:10488000BD02892B8093BD02089580959091BD0251
:1048900089238093BD0208951092BD0208958091EE
:1048A0009C02089508950C9452240C9453249091E2
:1048B000E50292FD08C090919C02981721F0809328
:1048C0009C020C945524089580919C02882329F021
:1048D00010929C0280E00C9455240895E0913201DE
:1048E000F09133018091BF028083E0913201F09119
:1048F000330190818091BE02892B8083E091320147
:10490000F091330190818091BD02892B8083809149
:104910009C02882381F0E0913201F0913301908173
:10492000892B808380913201909133010E949225DE
:1049300081110E94642480913201909133010C9482
:104940007C190C9452249091E50292FD10C098E0DD
:10495000899F90011124262B20939B020E94832281
:1049600080919B028595859585950C94A1240C9446
:10497000832210929B0280E00C94A12420919B0240
:104980008095822380939B02982F977041F430E0AA
:10499000482F082E000C550B2417350721F4909151
:1049A000E50292FF07C08595859585950E94A42212
:1049B0000C94B924089580E008956FEF7FEF80E0B4
:1049C00090E00C94892F80E090E00E94652F21E018
:1049D0008A3E9E4F09F020E0822F089582E090E009
:1049E0000C94572F83E090E00C94572FCF9384E0E2
:1049F00090E00E94572FC82F82E290E00E94572F2C
:104A00002C2F30E0A901582BCA01CF910895CF93E4
:104A1000C92F682F84E090E00E946B2F6C2F82E2F8
:104A200090E0CF910C946B2FAB01BC018FE090E034
:104A30000C947D2FAB01BC0183E190E00C947D2FA1
:104A400060E070E0CB010C941A2560E070E0CB01CF
:104A50000E9414250C9420256AEE7EEF80E090E001
:104A60000E94892F60E082E090E00E946B2F60E05E
:104A700083E090E00E946B2F1092970210929802B0
:104A80001092990210929A0260E084E090E00E94F5
:104A90006B2F60E082E290E00E946B2F60E085E087
:104AA00090E00E946B2F60E086E090E00E946B2F08
:104AB0006FEF87E090E00E946B2F40E050E0BA017A
:104AC00088E090E00E947D2F60E08DE090E00E9401
:104AD0006B2F40E050E0BA0188E190E00E947D2F0A
:104AE00060E087E190E00E946B2F40E050E0BA0167
:104AF0008CE190E00E947D2F60E070E080E290E029
:104B00000E94892F40E050E0BA0188E190E00E94C5
:104B10007D2F0C9425250C942C25682F8EE090E099
:104B20000C946B2FFC01329680913E01882331F06A
:104B30008091E40287FF02C09EE101C096E080E020
:104B4000915028F021912223D9F38F5FF9CF089556
:104B5000662351F120913E012223E9F02091E402E5
:104B600027FF19C0462F4695469546954E31E0F4ED
:104B7000677021E030E002C0220F331F6A95E2F730
:104B8000FC01E40FF11D828190E02823392381E0AC
:104B9000232B69F409C0FC01329608962191621713
:104BA00029F0E817F907D1F780E0089581E008952A
:104BB0009C01FC0132969FEF80E04191461789F0FD
:104BC0009F3F19F4411101C0982F8F5F8630A9F7DC
:104BD0009F3F39F0F901E90FF11D97FDFA956283C6
:104BE000089508959C012A5F3F4FFC0142814613BE
:104BF00001C01282019682179307B9F70895262FF4
:104C00002695269526952E3168F4FC01E20FF11DBC
:104C1000677021E030E001C0220F6A95EAF78281D7
:104C2000282B22830895262F2695269526952E310A
:104C300070F4FC01E20FF11D677021E030E001C06B
:104C4000220F6A95EAF7209582812823228308950E
:104C500020913E01222329F02091E40227FD0C94AB
:104C6000FF250C94D82520913E01222329F0209184
:104C7000E40227FD0C9413260C94F22520913E01AA
:104C8000FC013296222331F08091E40287FF02C0BA
:104C90008EE101C086E0DF011D928A95E9F7089553
:104CA00008950C9450260C945026CF930E945326BE
:104CB0000E949A090E945126C0E08C2F0E9475081C
:104CC000811104C0CF5FCA30C1F701C081E0CF912C
:104CD00008950C9450260C9469268091E503843045
:104CE00059F10E946B2680E00E943B060E943C0F17
:104CF0001092C10220E488E190E00FB6F894A895E4
:104D0000809360000FBE2093600083B7817F846032
:104D100083BF83B7816083BF7894889583B78E7F84
:104D200083BF0FB6F894A895809160008861809346
:104D30006000109260000FBE08950C9450260E94EF
:104D4000181E0E9470190E943B060E94CF0E0C9400
:104D50009D261F920F920FB60F9211248F939F934F
:104D6000AF93BF938091C102811113C08091D90389
:104D70009091DA03A091DB03B091DC034196A11D71
:104D8000B11D8093D9039093DA03A093DB03B09312
:104D9000DC03BF91AF919F918F910F900FBE0F9049
:104DA0001F90189582E084BD93E095BD9AEF97BD62
:104DB00080936E0008952FB7F8948091D903909155
:104DC000DA03A091DB03B091DC032FBF08952FB766
:104DD000F8946091D9037091DA038091DB0390918C
:104DE000DC032FBF08959C014FB7F8948091D9033D
:104DF0009091DA03A091DB03B091DC034FBF821BDB
:104E0000930B089578941F920F920FB60F9211246E
:104E10008F939F93AF93BF938091D9039091DA03BF
:104E2000A091DB03B091DC030196A11DB11D80931D
:104E3000D9039093DA03A093DB03B093DC03BF9113
:104E4000AF919F918F910F900FBE0F901F9018956B
:104E50001092DD031092DE031092DF031092E00344
:104E60000895CF92DF92EF92FF926B017C010E9436
:104E7000630A81110EC00E94E726C61AD70AE80A03
:104E8000F90AC092DD03D092DE03E092DF03F092D4
:104E9000E003FF90EF90DF90CF9008950F931F9362
:104EA0000E94630A882321F01F910F910C94E7263A
:104EB0000E94E7260091DD031091DE032091DF03BD
:104EC0003091E003600F711F821F931F1F910F919C
:104ED00008950E94630A81110C94DB260E944E27DC
:104EE000CB01089581E08093E00080E28093D800B8
:104EF0001092C9008FE19EE40197F1F700C0000015
:104F000087E090EBDC018093EE039093EF03A09396
:104F1000F003B093F1039CE088E10FB6F894A895F4
:104F2000809360000FBE90936000FFCF9093D901F3
:104F30008093D80108958091E20208950895CF9357
:104F4000DF9300D01F92CDB7DEB79091E503943088
:104F500011F589837B836A839093E9008FEF9091A9
:104F6000E800815095FD06C095ED9A95F1F7000097
:104F70008111F5CF8091E80085FF0DC040E050E041
:104F800063E070E0CE0101960E94112A8091E80052
:104F90008E778093E8000F900F900F90DF91CF9164
:104FA0000895BC0184E00C949F27BC0183E00C941D
:104FB0009F27CF93DF9320913E01222339F0209148
:104FC000E40227FF03C060E224E002C068E021E0C1
:104FD0002093E9002FEF3091E800215035FD06C005
:104FE00035ED3A95F1F700002111F5CF2091E80059
:104FF00025FF1DC0EC0180913E01811105C040E0FC
:1050000050E068E070E003C070E040E050E0CE01A6
:105010000E94112A8091E8008E778093E80080E258
:10502000FE01A2ECB2E001900D928A95E1F7DF91CA
:10503000CF910895CF93603219F52091E503243084
:10504000F9F4C091E900CF703091EC00232F21706A
:1050500030FD20E8C22B22E02093E9002091E800F7
:1050600020FF0BC040E050E060E270E00E94112A97
:105070008091E8008E778093E800CF70C093E900BC
:10508000CF9108958091E403811109C00E94ED2B16
:105090000E944A2C8091E20084608093E20008958F
:1050A0001092E403089508950895089542E061EC94
:1050B00081E00E94662B42E261EC84E00E94662B54
:1050C00042E261EC82E00E94662B42E260EC83E007
:1050D0000C94662B8091E703833009F462C030F4AE
:1050E000813071F0823009F49BC008958A3009F450
:1050F00087C08B3009F46DC0893009F0A9C020C089
:105100008091E603813A09F0A3C08091E800877F8F
:105110008093E8008091EA039091EB03892B21F4BE
:1051200060E282EC92E003C060E080E090E070E03A
:105130000E94A72A8091E8008B778093E800089569
:105140008091E603813209F083C08091EA03909157
:10515000EB03009719F0029709F07AC08091E800FC
:10516000877F8093E8008091E80082FD05C08091F0
:10517000E5038111F8CF6CC02091F3008091F2001B
:1051800090E0922B029729F48091F1008B7F81307F
:1051900021F48091F1008093E2028091E8008B7706
:1051A00053C08091E603813A09F052C08091EA032E
:1051B0009091EB03892B09F04BC08091E800877F29
:1051C0008093E8008091E80080FFFCCF80913E0151
:1051D00036C08091E6038132D9F58091EA0390913F
:1051E000EB03892BA9F58091E800877F8093E80085
:1051F0000E949B2B8091E80380933E010C94181E23
:105200008091E603813221F58091E800877F8093C9
:10521000E8000E949B2B8091E9038093E3020895AC
:105220008091E603813AA1F48091E800877F809322
:10523000E8008091E80080FFFCCF8091E30280933A
:10524000F1008091E8008E778093E8000C949B2B0E
:1052500008951F93CF93DF93CDB7DEB7A0970FB616
:10526000F894DEBF0FBECDBF84B7877F84BF0FB673
:10527000F894A895809160008861809360001092F6
:1052800060000FBE90E080E80FB6F8948093610054
:10529000909361000FBE0E94FC190E94ED2B0E94AA
:1052A0004A2C8091E20084608093E20078940E940E
:1052B000DF2E0E940A1A84E391E00E946B1913E02A
:1052C0008091E5038530A9F48091E503853079F478
:1052D0000E946D268091E3038823B1F30E94552636
:1052E000882391F30E94FB290E94181EEDCF0E9493
:1052F0009F260E94231A8091E503843009F51093BC
:10530000E9008091E80082FF1BC08091E80085FFE2
:105310000AC040E050E060E270E0CE0101960E94D9
:105320005C2A91E001C090E08091E8008B77809347
:10533000E800992329F060E2CE0101960E94C9128B
:105340000E94061ABDCF0C94A529292F332723309C
:105350003105C9F060F42130310581F0223031058A
:1053600009F041C08BE590E022E635E040C02132F3
:105370003105E1F02232310531F135C082E190E0B2
:105380002DEB35E034C099278130910549F028F0A4
:10539000029749F5E4E3F5E005C0EEE5F5E002C06B
:1053A000E6E4F5E0849190E09F0121C0633071054F
:1053B000D0F4660F771FFB01EE52FE4F2081318142
:1053C00089E090E014C06330710568F4FB01EE0FD2
:1053D000FF1FE453FE4F20813181FB01E753FE4F55
:1053E000808190E004C080E090E020E030E0FA01AD
:1053F00031832083089580E189BD82E189BD09B4AC
:1054000000FEFDCF8091D8008F7D8093D8008091E1
:10541000E00082608093E0008091E00081FDFCCF9D
:105420000895CF92DF92EF92FF920F931F93CF9345
:10543000DF93EC018B017A010E94BA2B811133C0FA
:10544000E114F10439F0F70180819181081B190BF7
:10545000C80FD91FC12CD12C0115110519F180914C
:10546000E80085FD16C08091E8008E778093E80003
:10547000E114F10449F0F70180819181C80ED91E31
:10548000D182C08285E00FC00E94BA2B882321F30D
:105490000AC089918093F10001501109FFEFCF1AE2
:1054A000DF0ADACF80E0DF91CF911F910F91FF905B
:1054B000EF90DF90CF900895CF92DF92EF92FF921E
:1054C0000F931F93CF93DF93EC018B017A010E941E
:1054D000BA2B811133C0E114F10439F0F701808156
:1054E0009181081B190BC80FD91FC12CD12C011594
:1054F000110519F18091E80085FD16C08091E80042
:105500008B778093E800E114F10449F0F701808182
:105510009181C80ED91ED182C08285E00FC00E9441
:10552000BA2B882321F30AC08091F100899301509E
:105530001109FFEFCF1ADF0ADACF80E0DF91CF91B8
:105540001F910F91FF90EF90DF90CF9008952091E1
:10555000EC033091ED032617370748F0611571050C
:1055600039F42091E8002E772093E80001C0B901BA
:10557000FC0120E06115710579F18091E503882334
:10558000F1F18530F1F18091E80083FD3CC080911C
:10559000E80082FD2EC08091E80080FFEBCF2091D3
:1055A000F3008091F20090E0922B6115710551F0AB
:1055B0008830910538F421912093F10061507109F0
:1055C0000196F3CF21E0089709F020E08091E800F0
:1055D0008E778093E800CECF2111CFCF0AC0809183
:1055E000E503882361F0853061F08091E80083FD58
:1055F0000AC08091E80082FFF2CF80E0089582E047
:10560000089583E0089581E008952091EC0330919E
:10561000ED032617370748F06115710539F420911D
:10562000E8002E772093E80001C0B901FC0120E0DA
:105630006115710591F18091E503882309F440C05B
:10564000853009F43FC08091E80083FD3DC0809122
:10565000E80082FD2FC08091E80080FFE9CF209113
:10566000F3008091F20090E0922B6115710559F0E2
:105670008830910540F424912093F10031966150D7
:1056800071090196F2CF21E0089709F020E080919E
:10569000E8008E778093E800CBCF2111CCCF0AC0F1
:1056A0008091E503882361F0853061F08091E80006
:1056B00083FD0AC08091E80082FFF2CF80E0089568
:1056C00082E0089583E0089581E00895982F97304F
:1056D00068F59093E900981739F07091EC002091EB
:1056E000ED005091F00003C0242F762F50E021FDF3
:1056F00002C09F5FECCF3091EB003E7F3093EB0018
:105700003091ED003D7F3093ED003091EB00316042
:105710003093EB007093EC002093ED005093F00079
:105720002091EE0027FDE5CF80E008958F708093F3
:10573000E90081E008958091E60387FF11C0809120
:10574000E80082FD05C08091E5038111F8CF11C00A
:105750008091E8008B770BC08091E503882349F0A6
:105760008091E80080FFF8CF8091E8008E778093E9
:10577000E80008952091E4003091E50095E640911D
:10578000EC00842F817040FF23C08091E80080FDF1
:105790001DC08091E503882399F0853099F08091B0
:1057A000EB0085FD11C04091E4005091E500241705
:1057B000350729F3915011F09A01E1CF84E0089563
:1057C00082E0089583E0089581E0089580E00895DF
:1057D0004091E80042FFDDCF08950E945B2C0E94BB
:1057E000632CE0EEF0E0808181608083E8EDF0E002
:1057F00080818F77808319BCA7EDB0E08C918E7F7C
:105800008C9380818F7E80831092E40308950F93A0
:105810001F93CF93DF930E945B2C0E94632CC8EDF3
:10582000D0E088818F7788838881806888838881A9
:105830008F7D888319BC1092E5031092E1031092CA
:10584000E3031092E20300EE10E0F80180818B7F09
:10585000808388818160888342E060E080E00E94EC
:10586000662BE1EEF0E080818E7F8083E2EEF0E057
:10587000808181608083808188608083F80180815D
:105880008E7F8083888180618883DF91CF911F9193
:105890000F910895E8EDF0E080818F7E8083E7ED41
:1058A000F0E080818160808384E082BF81E080932A
:1058B000E4030C94072CE8EDF0E080818E7F808378
:1058C0001092E20008951092DA001092E10008951B
:1058D0001F920F920FB60F9211242F933F934F9365
:1058E0005F936F937F938F939F93AF93BF93EF9348
:1058F000FF938091E10082FF0BC08091E20082FF64
:1059000007C08091E1008B7F8093E1000E94DE2E32
:105910008091DA0080FF1FC08091D80080FF1BC0FB
:105920008091DA008E7F8093DA008091D90080FF29
:105930000DC080E189BD82E189BD09B400FEFDCFC3
:1059400081E08093E5030E94422805C019BC1092B3
:10595000E5030E9450288091E10080FF19C08091EA
:10596000E20080FF15C08091E2008E7F8093E2000C
:105970008091E20080618093E2008091D800806293
:105980008093D80019BC85E08093E5030E945428D9
:105990008091E10084FF30C08091E20084FF2CC040
:1059A00080E189BD82E189BD09B400FEFDCF80910F
:1059B000D8008F7D8093D8008091E1008F7E809306
:1059C000E1008091E2008F7E8093E2008091E2000E
:1059D00081608093E2008091E103882311F084E0EC
:1059E00007C08091E30087FD02C081E001C083E031
:1059F0008093E5030E9455288091E10083FF29C030
:105A00008091E20083FF25C08091E100877F809331
:105A1000E10082E08093E5031092E1038091E100D0
:105A20008E7F8093E1008091E2008E7F8093E20080
:105A30008091E20080618093E20042E060E080E0DB
:105A40000E94662B8091F00088608093F0000E9495
:105A50005328FF91EF91BF91AF919F918F917F91CB
:105A60006F915F914F913F912F910F900FBE0F90CB
:105A70001F9018951F920F920FB60F9211242F931B
:105A80003F934F935F936F937F938F939F93AF93C6
:105A9000BF93CF93DF93EF93FF93C091E900CF7053
:105AA0008091EC00D82FD17080FDD0E81092E900F1
:105AB0008091F000877F8093F00078940E947E2D83
:105AC0001092E9008091F00088608093F000CD2B67
:105AD000CF70C093E900FF91EF91DF91CF91BF911B
